{
  "abi": [
    {
      "inputs": [
        {
          "internalType": "contract IEntryPoint",
          "name": "_entryPoint",
          "type": "address"
        },
        {
          "internalType": "address",
          "name": "_verifier",
          "type": "address"
        }
      ],
      "stateMutability": "nonpayable",
      "type": "constructor"
    },
    {
      "anonymous": false,
      "inputs": [
        {
          "indexed": true,
          "internalType": "address",
          "name": "previousOwner",
          "type": "address"
        },
        {
          "indexed": true,
          "internalType": "address",
          "name": "newOwner",
          "type": "address"
        }
      ],
      "name": "OwnershipTransferred",
      "type": "event"
    },
    {
      "inputs": [],
      "name": "accountImplementation",
      "outputs": [
        {
          "internalType": "contract Account",
          "name": "",
          "type": "address"
        }
      ],
      "stateMutability": "view",
      "type": "function"
    },
    {
      "inputs": [
        {
          "internalType": "bytes32",
          "name": "_merkleRoot",
          "type": "bytes32"
        },
        {
          "internalType": "uint16",
          "name": "_step",
          "type": "uint16"
        },
        {
          "internalType": "uint256",
          "name": "salt",
          "type": "uint256"
        }
      ],
      "name": "createAccount",
      "outputs": [
        {
          "internalType": "contract Account",
          "name": "ret",
          "type": "address"
        }
      ],
      "stateMutability": "nonpayable",
      "type": "function"
    },
    {
      "inputs": [
        {
          "internalType": "bytes32",
          "name": "_merkleRoot",
          "type": "bytes32"
        },
        {
          "internalType": "uint16",
          "name": "_step",
          "type": "uint16"
        },
        {
          "internalType": "uint256",
          "name": "salt",
          "type": "uint256"
        }
      ],
      "name": "getAccountAddress",
      "outputs": [
        {
          "internalType": "address",
          "name": "",
          "type": "address"
        }
      ],
      "stateMutability": "view",
      "type": "function"
    },
    {
      "inputs": [],
      "name": "owner",
      "outputs": [
        {
          "internalType": "address",
          "name": "",
          "type": "address"
        }
      ],
      "stateMutability": "view",
      "type": "function"
    },
    {
      "inputs": [],
      "name": "renounceOwnership",
      "outputs": [],
      "stateMutability": "nonpayable",
      "type": "function"
    },
    {
      "inputs": [
        {
          "internalType": "address",
          "name": "_verifier",
          "type": "address"
        }
      ],
      "name": "setVerifier",
      "outputs": [],
      "stateMutability": "nonpayable",
      "type": "function"
    },
    {
      "inputs": [
        {
          "internalType": "address",
          "name": "newOwner",
          "type": "address"
        }
      ],
      "name": "transferOwnership",
      "outputs": [],
      "stateMutability": "nonpayable",
      "type": "function"
    },
    {
      "inputs": [],
      "name": "verifier",
      "outputs": [
        {
          "internalType": "address",
          "name": "",
          "type": "address"
        }
      ],
      "stateMutability": "view",
      "type": "function"
    }
  ],
  "bytecode": {
    "object": "0x60a060405234801561001057600080fd5b5060405161319338038061319383398101604081905261002f91610113565b6100383361009e565b81604051610045906100ee565b6001600160a01b039091168152602001604051809103906000f080158015610071573d6000803e3d6000fd5b506001600160a01b03908116608052600180546001600160a01b031916929091169190911790555061014d565b600080546001600160a01b038381166001600160a01b0319831681178455604051919092169283917f8be0079c531659141344cd1fd0a4f28419497f9722a3daafe3b4186f6b6457e09190a35050565b61237c80610e1783390190565b6001600160a01b038116811461011057600080fd5b50565b6000806040838503121561012657600080fd5b8251610131816100fb565b6020840151909250610142816100fb565b809150509250929050565b608051610ca261017560003960008181609e0152818161020301526103900152610ca26000f3fe60806040523480156200001157600080fd5b5060043610620000935760003560e01c8063715018a61162000062578063715018a6146200013a5780638da5cb5b1462000144578063d5df4b7e1462000163578063f2fde38b146200017a57600080fd5b806311464fbe14620000985780631799669114620000e95780632b7ac3f314620001005780635437988d1462000121575b600080fd5b620000c07f000000000000000000000000000000000000000000000000000000000000000081565b60405173ffffffffffffffffffffffffffffffffffffffff909116815260200160405180910390f35b620000c0620000fa3660046200065a565b62000191565b600154620000c09073ffffffffffffffffffffffffffffffffffffffff1681565b62000138620001323660046200069b565b620002c5565b005b6200013862000316565b60005473ffffffffffffffffffffffffffffffffffffffff16620000c0565b620000c0620001743660046200065a565b6200032e565b620001386200018b3660046200069b565b62000460565b600080620001a18585856200032e565b905073ffffffffffffffffffffffffffffffffffffffff81163b8015620001cb57509050620002be565b60015460405173ffffffffffffffffffffffffffffffffffffffff90911660248201526044810187905261ffff8616606482015284907f00000000000000000000000000000000000000000000000000000000000000009060840160408051601f198184030181529181526020820180517bffffffffffffffffffffffffffffffffffffffffffffffffffffffff167f46d1d35700000000000000000000000000000000000000000000000000000000179052516200028a906200064c565b62000297929190620006f9565b8190604051809103906000f5905080158015620002b8573d6000803e3d6000fd5b50925050505b9392505050565b620002cf62000521565b600180547fffffffffffffffffffffffff00000000000000000000000000000000000000001673ffffffffffffffffffffffffffffffffffffffff92909216919091179055565b6200032062000521565b6200032c6000620005a4565b565b6000620004588260001b604051806020016200034a906200064c565b601f1982820381018352601f90910116604081905260015473ffffffffffffffffffffffffffffffffffffffff1660248201526044810188905261ffff871660648201527f00000000000000000000000000000000000000000000000000000000000000009060840160408051601f19818403018152918152602080830180517bffffffffffffffffffffffffffffffffffffffffffffffffffffffff167f46d1d3570000000000000000000000000000000000000000000000000000000017905290516200041c93929101620006f9565b60408051601f19818403018152908290526200043c92916020016200074b565b6040516020818303038152906040528051906020012062000619565b949350505050565b6200046a62000521565b73ffffffffffffffffffffffffffffffffffffffff811662000513576040517f08c379a000000000000000000000000000000000000000000000000000000000815260206004820152602660248201527f4f776e61626c653a206e6577206f776e657220697320746865207a65726f206160448201527f646472657373000000000000000000000000000000000000000000000000000060648201526084015b60405180910390fd5b6200051e81620005a4565b50565b60005473ffffffffffffffffffffffffffffffffffffffff1633146200032c576040517f08c379a000000000000000000000000000000000000000000000000000000000815260206004820181905260248201527f4f776e61626c653a2063616c6c6572206973206e6f7420746865206f776e657260448201526064016200050a565b6000805473ffffffffffffffffffffffffffffffffffffffff8381167fffffffffffffffffffffffff0000000000000000000000000000000000000000831681178455604051919092169283917f8be0079c531659141344cd1fd0a4f28419497f9722a3daafe3b4186f6b6457e09190a35050565b6000620002be8383306000604051836040820152846020820152828152600b8101905060ff815360559020949350505050565b6104ee806200077f83390190565b6000806000606084860312156200067057600080fd5b83359250602084013561ffff811681146200068a57600080fd5b929592945050506040919091013590565b600060208284031215620006ae57600080fd5b813573ffffffffffffffffffffffffffffffffffffffff81168114620002be57600080fd5b60005b83811015620006f0578181015183820152602001620006d6565b50506000910152565b73ffffffffffffffffffffffffffffffffffffffff83168152604060208201526000825180604084015262000736816060850160208701620006d3565b601f01601f1916919091016060019392505050565b600083516200075f818460208801620006d3565b83519083019062000775818360208801620006d3565b0194935050505056fe60806040526040516104ee3803806104ee833981016040819052610022916102de565b61002e82826000610035565b50506103fb565b61003e83610061565b60008251118061004b5750805b1561005c5761005a83836100a1565b505b505050565b61006a816100cd565b6040516001600160a01b038216907fbc7cd75a20ee27fd9adebab32041f755214dbc6bffa90cc0225b39da2e5c2d3b90600090a250565b60606100c683836040518060600160405280602781526020016104c760279139610180565b9392505050565b6001600160a01b0381163b61013f5760405162461bcd60e51b815260206004820152602d60248201527f455243313936373a206e657720696d706c656d656e746174696f6e206973206e60448201526c1bdd08184818dbdb9d1c9858dd609a1b60648201526084015b60405180910390fd5b7f360894a13ba1a3210667c828492db98dca3e2076cc3735a920a3ca505d382bbc80546001600160a01b0319166001600160a01b0392909216919091179055565b6060600080856001600160a01b03168560405161019d91906103ac565b600060405180830381855af49150503d80600081146101d8576040519150601f19603f3d011682016040523d82523d6000602084013e6101dd565b606091505b5090925090506101ef868383876101f9565b9695505050505050565b60608315610268578251600003610261576001600160a01b0385163b6102615760405162461bcd60e51b815260206004820152601d60248201527f416464726573733a2063616c6c20746f206e6f6e2d636f6e74726163740000006044820152606401610136565b5081610272565b610272838361027a565b949350505050565b81511561028a5781518083602001fd5b8060405162461bcd60e51b815260040161013691906103c8565b634e487b7160e01b600052604160045260246000fd5b60005b838110156102d55781810151838201526020016102bd565b50506000910152565b600080604083850312156102f157600080fd5b82516001600160a01b038116811461030857600080fd5b60208401519092506001600160401b038082111561032557600080fd5b818501915085601f83011261033957600080fd5b81518181111561034b5761034b6102a4565b604051601f8201601f19908116603f01168101908382118183101715610373576103736102a4565b8160405282815288602084870101111561038c57600080fd5b61039d8360208301602088016102ba565b80955050505050509250929050565b600082516103be8184602087016102ba565b9190910192915050565b60208152600082518060208401526103e78160408501602087016102ba565b601f01601f19169190910160400192915050565b60be806104096000396000f3fe608060405236601057600e6013565b005b600e5b601f601b6021565b6065565b565b600060607f360894a13ba1a3210667c828492db98dca3e2076cc3735a920a3ca505d382bbc5473ffffffffffffffffffffffffffffffffffffffff1690565b905090565b3660008037600080366000845af43d6000803e8080156083573d6000f35b3d6000fdfea26469706673582212201878b8fbfe208e2ada463feba070d57ea266a04bcda691ca6a0028488987b68064736f6c63430008140033416464726573733a206c6f772d6c6576656c2064656c65676174652063616c6c206661696c6564a26469706673582212207da065d916c105fd4c59a5ae57712fc51745510830152afdac633e54e6b6c57264736f6c6343000814003360c0604052306080523480156200001557600080fd5b506040516200237c3803806200237c833981016040819052620000389162000118565b6001600160a01b03811660a0526200004f62000056565b506200014a565b600054610100900460ff1615620000c35760405162461bcd60e51b815260206004820152602760248201527f496e697469616c697a61626c653a20636f6e747261637420697320696e697469604482015266616c697a696e6760c81b606482015260840160405180910390fd5b60005460ff908116101562000116576000805460ff191660ff9081179091556040519081527f7f26b83ff96e1f2b6a682f133852f6798a09c465da95921460cefb38474024989060200160405180910390a15b565b6000602082840312156200012b57600080fd5b81516001600160a01b03811681146200014357600080fd5b9392505050565b60805160a0516121bf620001bd600039600081816103e101528181610aab01528181610b4501528181610eba01528181610f6b01528181610fa50152818161125101526113ae01526000818161071c015281816107b201528181610bef01528181610c850152610d8001526121bf6000f3fe6080604052600436106101785760003560e01c80634d44560d116100cb578063b61d27f61161007f578063d087d28811610059578063d087d28814610482578063e25fe17514610497578063f23a6e61146104dd57600080fd5b8063b61d27f614610405578063bc197c8114610425578063c399ec881461046d57600080fd5b806352d1902d116100b057806352d1902d1461039d5780638da5cb5b146103b2578063b0d691fe146103d257600080fd5b80634d44560d1461036a5780634f1ef2861461038a57600080fd5b80632b7ac3f31161012d5780633a871cdd116101075780633a871cdd1461032257806346d1d357146103425780634a58db191461036257600080fd5b80632b7ac3f3146102a65780632eb4a7ab146102de5780633659cfe61461030257600080fd5b8063150b7a021161015e578063150b7a02146101e057806318dfb3c7146102565780632997e86b1461027657600080fd5b806223de291461018457806301ffc9a7146101ab57600080fd5b3661017f57005b600080fd5b34801561019057600080fd5b506101a961019f366004611952565b5050505050505050565b005b3480156101b757600080fd5b506101cb6101c6366004611a03565b610523565b60405190151581526020015b60405180910390f35b3480156101ec57600080fd5b506102256101fb366004611a45565b7f150b7a020000000000000000000000000000000000000000000000000000000095945050505050565b6040517fffffffff0000000000000000000000000000000000000000000000000000000090911681526020016101d7565b34801561026257600080fd5b506101a9610271366004611afd565b610608565b34801561028257600080fd5b506101cb610291366004611b69565b60036020526000908152604090205460ff1681565b3480156102b257600080fd5b506002546102c6906001600160a01b031681565b6040516001600160a01b0390911681526020016101d7565b3480156102ea57600080fd5b506102f460015481565b6040519081526020016101d7565b34801561030e57600080fd5b506101a961031d366004611b82565b610712565b34801561032e57600080fd5b506102f461033d366004611b9f565b6108af565b34801561034e57600080fd5b506101a961035d366004611bf3565b6108d5565b6101a9610aa9565b34801561037657600080fd5b506101a9610385366004611c3c565b610b3b565b6101a9610398366004611d24565b610be5565b3480156103a957600080fd5b506102f4610d73565b3480156103be57600080fd5b506004546102c6906001600160a01b031681565b3480156103de57600080fd5b507f00000000000000000000000000000000000000000000000000000000000000006102c6565b34801561041157600080fd5b506101a9610420366004611d74565b610e38565b34801561043157600080fd5b50610225610440366004611dc4565b7fbc197c810000000000000000000000000000000000000000000000000000000098975050505050505050565b34801561047957600080fd5b506102f4610e81565b34801561048e57600080fd5b506102f4610f2b565b3480156104a357600080fd5b506002546104ca9074010000000000000000000000000000000000000000900461ffff1681565b60405161ffff90911681526020016101d7565b3480156104e957600080fd5b506102256104f8366004611e62565b7ff23a6e61000000000000000000000000000000000000000000000000000000009695505050505050565b60007fffffffff0000000000000000000000000000000000000000000000000000000082167f150b7a020000000000000000000000000000000000000000000000000000000014806105b657507fffffffff0000000000000000000000000000000000000000000000000000000082167f4e2312e000000000000000000000000000000000000000000000000000000000145b8061060257507fffffffff0000000000000000000000000000000000000000000000000000000082167f01ffc9a700000000000000000000000000000000000000000000000000000000145b92915050565b610610610f9a565b8281146106645760405162461bcd60e51b815260206004820152601360248201527f77726f6e67206172726179206c656e677468730000000000000000000000000060448201526064015b60405180910390fd5b60005b8381101561070b576106f985858381811061068457610684611ede565b90506020020160208101906106999190611b82565b60008585858181106106ad576106ad611ede565b90506020028101906106bf9190611f0d565b8080601f01602080910402602001604051908101604052809392919081815260200183838082843760009201919091525061102992505050565b8061070381611f72565b915050610667565b5050505050565b6001600160a01b037f00000000000000000000000000000000000000000000000000000000000000001630036107b05760405162461bcd60e51b815260206004820152602c60248201527f46756e6374696f6e206d7573742062652063616c6c6564207468726f7567682060448201527f64656c656761746563616c6c0000000000000000000000000000000000000000606482015260840161065b565b7f00000000000000000000000000000000000000000000000000000000000000006001600160a01b031661080b7f360894a13ba1a3210667c828492db98dca3e2076cc3735a920a3ca505d382bbc546001600160a01b031690565b6001600160a01b0316146108875760405162461bcd60e51b815260206004820152602c60248201527f46756e6374696f6e206d7573742062652063616c6c6564207468726f7567682060448201527f6163746976652070726f78790000000000000000000000000000000000000000606482015260840161065b565b61089081611099565b604080516000808252602082019092526108ac918391906110a1565b50565b60006108b9611246565b6108c384846112be565b90506108ce82611305565b9392505050565b600054610100900460ff16158080156108f55750600054600160ff909116105b8061090f5750303b15801561090f575060005460ff166001145b6109815760405162461bcd60e51b815260206004820152602e60248201527f496e697469616c697a61626c653a20636f6e747261637420697320616c72656160448201527f647920696e697469616c697a6564000000000000000000000000000000000000606482015260840161065b565b600080547fffffffffffffffffffffffffffffffffffffffffffffffffffffffffffffff0016600117905580156109df57600080547fffffffffffffffffffffffffffffffffffffffffffffffffffffffffffff00ff166101001790555b6109e96000611370565b6002805460018590556001600160a01b0386167fffffffffffffffffffff00000000000000000000000000000000000000000000909116177401000000000000000000000000000000000000000061ffff8516021790558015610aa357600080547fffffffffffffffffffffffffffffffffffffffffffffffffffffffffffff00ff169055604051600181527f7f26b83ff96e1f2b6a682f133852f6798a09c465da95921460cefb38474024989060200160405180910390a15b50505050565b7f00000000000000000000000000000000000000000000000000000000000000006040517fb760faf90000000000000000000000000000000000000000000000000000000081523060048201526001600160a01b03919091169063b760faf99034906024016000604051808303818588803b158015610b2757600080fd5b505af115801561070b573d6000803e3d6000fd5b610b436113f8565b7f00000000000000000000000000000000000000000000000000000000000000006040517f205c28780000000000000000000000000000000000000000000000000000000081526001600160a01b03848116600483015260248201849052919091169063205c287890604401600060405180830381600087803b158015610bc957600080fd5b505af1158015610bdd573d6000803e3d6000fd5b505050505050565b6001600160a01b037f0000000000000000000000000000000000000000000000000000000000000000163003610c835760405162461bcd60e51b815260206004820152602c60248201527f46756e6374696f6e206d7573742062652063616c6c6564207468726f7567682060448201527f64656c656761746563616c6c0000000000000000000000000000000000000000606482015260840161065b565b7f00000000000000000000000000000000000000000000000000000000000000006001600160a01b0316610cde7f360894a13ba1a3210667c828492db98dca3e2076cc3735a920a3ca505d382bbc546001600160a01b031690565b6001600160a01b031614610d5a5760405162461bcd60e51b815260206004820152602c60248201527f46756e6374696f6e206d7573742062652063616c6c6564207468726f7567682060448201527f6163746976652070726f78790000000000000000000000000000000000000000606482015260840161065b565b610d6382611099565b610d6f828260016110a1565b5050565b6000306001600160a01b037f00000000000000000000000000000000000000000000000000000000000000001614610e135760405162461bcd60e51b815260206004820152603860248201527f555550535570677261646561626c653a206d757374206e6f742062652063616c60448201527f6c6564207468726f7567682064656c656761746563616c6c0000000000000000606482015260840161065b565b507f360894a13ba1a3210667c828492db98dca3e2076cc3735a920a3ca505d382bbc90565b610e40610f9a565b610aa3848484848080601f01602080910402602001604051908101604052809392919081815260200183838082843760009201919091525061102992505050565b6040517f70a082310000000000000000000000000000000000000000000000000000000081523060048201526000906001600160a01b037f000000000000000000000000000000000000000000000000000000000000000016906370a08231906024015b602060405180830381865afa158015610f02573d6000803e3d6000fd5b505050506040513d601f19601f82011682018060405250810190610f269190611fd1565b905090565b6040517f35567e1a000000000000000000000000000000000000000000000000000000008152306004820152600060248201819052906001600160a01b037f000000000000000000000000000000000000000000000000000000000000000016906335567e1a90604401610ee5565b336001600160a01b037f0000000000000000000000000000000000000000000000000000000000000000161480610fdb57506004546001600160a01b031633145b6110275760405162461bcd60e51b815260206004820181905260248201527f6163636f756e743a206e6f74204f776e6572206f7220456e747279506f696e74604482015260640161065b565b565b600080846001600160a01b03168484604051611045919061200e565b60006040518083038185875af1925050503d8060008114611082576040519150601f19603f3d011682016040523d82523d6000602084013e611087565b606091505b50915091508161070b57805160208201fd5b6108ac6113f8565b7f4910fdfa16fed3260ed0e7147f7cc6da11a60208b5b9406d12a635614ffd91435460ff16156110d9576110d48361145c565b505050565b826001600160a01b03166352d1902d6040518163ffffffff1660e01b8152600401602060405180830381865afa925050508015611133575060408051601f3d908101601f1916820190925261113091810190611fd1565b60015b6111a55760405162461bcd60e51b815260206004820152602e60248201527f45524331393637557067726164653a206e657720696d706c656d656e7461746960448201527f6f6e206973206e6f742055555053000000000000000000000000000000000000606482015260840161065b565b7f360894a13ba1a3210667c828492db98dca3e2076cc3735a920a3ca505d382bbc811461123a5760405162461bcd60e51b815260206004820152602960248201527f45524331393637557067726164653a20756e737570706f727465642070726f7860448201527f6961626c65555549440000000000000000000000000000000000000000000000606482015260840161065b565b506110d4838383611532565b336001600160a01b037f000000000000000000000000000000000000000000000000000000000000000016146110275760405162461bcd60e51b815260206004820152601c60248201527f6163636f756e743a206e6f742066726f6d20456e747279506f696e7400000000604482015260640161065b565b600080806112d0610140860186611f0d565b8101906112dd919061202a565b915091506112eb8282611557565b6112fa57600192505050610602565b506000949350505050565b80156108ac5760405160009033907fffffffffffffffffffffffffffffffffffffffffffffffffffffffffffffffff90849084818181858888f193505050503d806000811461070b576040519150601f19603f3d011682016040523d82523d6000602084013e61070b565b600480547fffffffffffffffffffffffff0000000000000000000000000000000000000000166001600160a01b0383811691821790925560405190917f000000000000000000000000000000000000000000000000000000000000000016907f526ffefac8167421b9048ae3377810715d834479565b0182ea4155f0efa4c38090600090a350565b6004546001600160a01b031633148061141057503330145b6110275760405162461bcd60e51b815260206004820152600a60248201527f6f6e6c79206f776e657200000000000000000000000000000000000000000000604482015260640161065b565b6001600160a01b0381163b6114d95760405162461bcd60e51b815260206004820152602d60248201527f455243313936373a206e657720696d706c656d656e746174696f6e206973206e60448201527f6f74206120636f6e747261637400000000000000000000000000000000000000606482015260840161065b565b7f360894a13ba1a3210667c828492db98dca3e2076cc3735a920a3ca505d382bbc80547fffffffffffffffffffffffff0000000000000000000000000000000000000000166001600160a01b0392909216919091179055565b61153b83611771565b6000825111806115485750805b156110d457610aa383836117b1565b60008181526003602052604081205460ff16156115b65760405162461bcd60e51b815260206004820152601460248201527f4455504c4943415445445f4e554c4c4946494552000000000000000000000000604482015260640161065b565b6002546000906115e29074010000000000000000000000000000000000000000900461ffff164261206f565b604080516003808252608082019092529192506000919060208201606080368337019050509050838160008151811061161d5761161d611ede565b6020026020010181815250506001548160018151811061163f5761163f611ede565b6020026020010181815250508160001b8160028151811061166257611662611ede565b60209081029190910101526002546040517fea50d0e40000000000000000000000000000000000000000000000000000000081526001600160a01b039091169063ea50d0e4906116b890889085906004016120d6565b602060405180830381865afa1580156116d5573d6000803e3d6000fd5b505050506040513d601f19601f820116820180604052508101906116f9919061212d565b61172f576040517fff3ee09d00000000000000000000000000000000000000000000000000000000815260040160405180910390fd5b505050600081815260036020526040902080547fffffffffffffffffffffffffffffffffffffffffffffffffffffffffffffff00166001908117909155610602565b61177a8161145c565b6040516001600160a01b038216907fbc7cd75a20ee27fd9adebab32041f755214dbc6bffa90cc0225b39da2e5c2d3b90600090a250565b60606108ce8383604051806060016040528060278152602001612163602791396060600080856001600160a01b0316856040516117ee919061200e565b600060405180830381855af49150503d8060008114611829576040519150601f19603f3d011682016040523d82523d6000602084013e61182e565b606091505b509150915061183f86838387611849565b9695505050505050565b606083156118b85782516000036118b1576001600160a01b0385163b6118b15760405162461bcd60e51b815260206004820152601d60248201527f416464726573733a2063616c6c20746f206e6f6e2d636f6e7472616374000000604482015260640161065b565b50816118c2565b6118c283836118ca565b949350505050565b8151156118da5781518083602001fd5b8060405162461bcd60e51b815260040161065b919061214f565b6001600160a01b03811681146108ac57600080fd5b60008083601f84011261191b57600080fd5b50813567ffffffffffffffff81111561193357600080fd5b60208301915083602082850101111561194b57600080fd5b9250929050565b60008060008060008060008060c0898b03121561196e57600080fd5b8835611979816118f4565b97506020890135611989816118f4565b96506040890135611999816118f4565b955060608901359450608089013567ffffffffffffffff808211156119bd57600080fd5b6119c98c838d01611909565b909650945060a08b01359150808211156119e257600080fd5b506119ef8b828c01611909565b999c989b5096995094979396929594505050565b600060208284031215611a1557600080fd5b81357fffffffff00000000000000000000000000000000000000000000000000000000811681146108ce57600080fd5b600080600080600060808688031215611a5d57600080fd5b8535611a68816118f4565b94506020860135611a78816118f4565b935060408601359250606086013567ffffffffffffffff811115611a9b57600080fd5b611aa788828901611909565b969995985093965092949392505050565b60008083601f840112611aca57600080fd5b50813567ffffffffffffffff811115611ae257600080fd5b6020830191508360208260051b850101111561194b57600080fd5b60008060008060408587031215611b1357600080fd5b843567ffffffffffffffff80821115611b2b57600080fd5b611b3788838901611ab8565b90965094506020870135915080821115611b5057600080fd5b50611b5d87828801611ab8565b95989497509550505050565b600060208284031215611b7b57600080fd5b5035919050565b600060208284031215611b9457600080fd5b81356108ce816118f4565b600080600060608486031215611bb457600080fd5b833567ffffffffffffffff811115611bcb57600080fd5b84016101608187031215611bde57600080fd5b95602085013595506040909401359392505050565b600080600060608486031215611c0857600080fd5b8335611c13816118f4565b925060208401359150604084013561ffff81168114611c3157600080fd5b809150509250925092565b60008060408385031215611c4f57600080fd5b8235611c5a816118f4565b946020939093013593505050565b7f4e487b7100000000000000000000000000000000000000000000000000000000600052604160045260246000fd5b600082601f830112611ca857600080fd5b813567ffffffffffffffff80821115611cc357611cc3611c68565b604051601f8301601f19908116603f01168101908282118183101715611ceb57611ceb611c68565b81604052838152866020858801011115611d0457600080fd5b836020870160208301376000602085830101528094505050505092915050565b60008060408385031215611d3757600080fd5b8235611d42816118f4565b9150602083013567ffffffffffffffff811115611d5e57600080fd5b611d6a85828601611c97565b9150509250929050565b60008060008060608587031215611d8a57600080fd5b8435611d95816118f4565b935060208501359250604085013567ffffffffffffffff811115611db857600080fd5b611b5d87828801611909565b60008060008060008060008060a0898b031215611de057600080fd5b8835611deb816118f4565b97506020890135611dfb816118f4565b9650604089013567ffffffffffffffff80821115611e1857600080fd5b611e248c838d01611ab8565b909850965060608b0135915080821115611e3d57600080fd5b611e498c838d01611ab8565b909650945060808b01359150808211156119e257600080fd5b60008060008060008060a08789031215611e7b57600080fd5b8635611e86816118f4565b95506020870135611e96816118f4565b94506040870135935060608701359250608087013567ffffffffffffffff811115611ec057600080fd5b611ecc89828a01611909565b979a9699509497509295939492505050565b7f4e487b7100000000000000000000000000000000000000000000000000000000600052603260045260246000fd5b60008083357fffffffffffffffffffffffffffffffffffffffffffffffffffffffffffffffe1843603018112611f4257600080fd5b83018035915067ffffffffffffffff821115611f5d57600080fd5b60200191503681900382131561194b57600080fd5b60007fffffffffffffffffffffffffffffffffffffffffffffffffffffffffffffffff8203611fca577f4e487b7100000000000000000000000000000000000000000000000000000000600052601160045260246000fd5b5060010190565b600060208284031215611fe357600080fd5b5051919050565b60005b83811015612005578181015183820152602001611fed565b50506000910152565b60008251612020818460208701611fea565b9190910192915050565b6000806040838503121561203d57600080fd5b823567ffffffffffffffff81111561205457600080fd5b61206085828601611c97565b95602094909401359450505050565b6000826120a5577f4e487b7100000000000000000000000000000000000000000000000000000000600052601260045260246000fd5b500490565b600081518084526120c2816020860160208601611fea565b601f01601f19169290920160200192915050565b6040815260006120e960408301856120aa565b82810360208481019190915284518083528582019282019060005b8181101561212057845183529383019391830191600101612104565b5090979650505050505050565b60006020828403121561213f57600080fd5b815180151581146108ce57600080fd5b6020815260006108ce60208301846120aa56fe416464726573733a206c6f772d6c6576656c2064656c65676174652063616c6c206661696c6564a2646970667358221220ce5033e92f4d7f1827c03fa6a651010f070fce00bdd642aa4a55a4fef5859fbf64736f6c63430008140033",
    "linkReferences": {}
  },
  "methodIdentifiers": {
    "accountImplementation()": "11464fbe",
    "createAccount(bytes32,uint16,uint256)": "17996691",
    "getAccountAddress(bytes32,uint16,uint256)": "d5df4b7e",
    "owner()": "8da5cb5b",
    "renounceOwnership()": "715018a6",
    "setVerifier(address)": "5437988d",
    "transferOwnership(address)": "f2fde38b",
    "verifier()": "2b7ac3f3"
  },
  "id": 45
}