{
  "abi": [
    {
      "inputs": [
        {
          "internalType": "contract IEntryPoint",
          "name": "_entryPoint",
          "type": "address"
        },
        {
          "internalType": "address",
          "name": "_anonAadhaarVerifierAddr",
          "type": "address"
        },
        {
          "internalType": "address",
          "name": "_noirOTPVerifier",
          "type": "address"
        }
      ],
      "stateMutability": "nonpayable",
      "type": "constructor"
    },
    {
      "anonymous": false,
      "inputs": [
        {
          "indexed": true,
          "internalType": "address",
          "name": "previousOwner",
          "type": "address"
        },
        {
          "indexed": true,
          "internalType": "address",
          "name": "newOwner",
          "type": "address"
        }
      ],
      "name": "OwnershipTransferred",
      "type": "event"
    },
    {
      "inputs": [],
      "name": "accountImplementation",
      "outputs": [
        {
          "internalType": "contract Account",
          "name": "",
          "type": "address"
        }
      ],
      "stateMutability": "view",
      "type": "function"
    },
    {
      "inputs": [],
      "name": "anonAadhaarVerifierAddr",
      "outputs": [
        {
          "internalType": "address",
          "name": "",
          "type": "address"
        }
      ],
      "stateMutability": "view",
      "type": "function"
    },
    {
      "inputs": [
        {
          "internalType": "uint256",
          "name": "_userDataHash",
          "type": "uint256"
        },
        {
          "internalType": "bytes32",
          "name": "_merkleRoot",
          "type": "bytes32"
        },
        {
          "internalType": "uint16",
          "name": "_step",
          "type": "uint16"
        },
        {
          "internalType": "string",
          "name": "_ipfsHash",
          "type": "string"
        },
        {
          "internalType": "uint256",
          "name": "salt",
          "type": "uint256"
        }
      ],
      "name": "createAccount",
      "outputs": [
        {
          "internalType": "contract Account",
          "name": "ret",
          "type": "address"
        }
      ],
      "stateMutability": "nonpayable",
      "type": "function"
    },
    {
      "inputs": [
        {
          "internalType": "uint256",
          "name": "_userDataHash",
          "type": "uint256"
        },
        {
          "internalType": "bytes32",
          "name": "_merkleRoot",
          "type": "bytes32"
        },
        {
          "internalType": "uint16",
          "name": "_step",
          "type": "uint16"
        },
        {
          "internalType": "string",
          "name": "_ipfsHash",
          "type": "string"
        },
        {
          "internalType": "uint256",
          "name": "salt",
          "type": "uint256"
        }
      ],
      "name": "getAccountAddress",
      "outputs": [
        {
          "internalType": "address",
          "name": "",
          "type": "address"
        }
      ],
      "stateMutability": "view",
      "type": "function"
    },
    {
      "inputs": [],
      "name": "noirOTPVerifier",
      "outputs": [
        {
          "internalType": "address",
          "name": "",
          "type": "address"
        }
      ],
      "stateMutability": "view",
      "type": "function"
    },
    {
      "inputs": [],
      "name": "owner",
      "outputs": [
        {
          "internalType": "address",
          "name": "",
          "type": "address"
        }
      ],
      "stateMutability": "view",
      "type": "function"
    },
    {
      "inputs": [],
      "name": "renounceOwnership",
      "outputs": [],
      "stateMutability": "nonpayable",
      "type": "function"
    },
    {
      "inputs": [
        {
          "internalType": "address",
          "name": "_anonAadhaarVerifierAddr",
          "type": "address"
        }
      ],
      "name": "setAnonAadhaarVerifierAddr",
      "outputs": [],
      "stateMutability": "nonpayable",
      "type": "function"
    },
    {
      "inputs": [
        {
          "internalType": "address",
          "name": "_noirOTPVerifier",
          "type": "address"
        }
      ],
      "name": "setNoirOTPVerifier",
      "outputs": [],
      "stateMutability": "nonpayable",
      "type": "function"
    },
    {
      "inputs": [
        {
          "internalType": "address",
          "name": "newOwner",
          "type": "address"
        }
      ],
      "name": "transferOwnership",
      "outputs": [],
      "stateMutability": "nonpayable",
      "type": "function"
    }
  ],
  "bytecode": {
    "object": "0x60a060405234801561001057600080fd5b50604051613b38380380613b3883398101604081905261002f91610120565b610038336100ab565b82604051610045906100fb565b6001600160a01b039091168152602001604051809103906000f080158015610071573d6000803e3d6000fd5b506001600160a01b03908116608052600180549382166001600160a01b03199485161790556002805492909116919092161790555061016d565b600080546001600160a01b038381166001600160a01b0319831681178455604051919092169283917f8be0079c531659141344cd1fd0a4f28419497f9722a3daafe3b4186f6b6457e09190a35050565b612ad08061106883390190565b6001600160a01b038116811461011d57600080fd5b50565b60008060006060848603121561013557600080fd5b835161014081610108565b602085015190935061015181610108565b604085015190925061016281610108565b809150509250925092565b608051610ed2610196600039600081816101220152818161023c01526103f10152610ed26000f3fe60806040523480156200001157600080fd5b5060043610620000cd5760003560e01c80638da5cb5b116200007f578063a6b8c60b1162000062578063a6b8c60b14620001be578063db5a3aea14620001d5578063f2fde38b14620001ec57600080fd5b80638da5cb5b1462000188578063a282ae5614620001a757600080fd5b806348a4e4c411620000b457806348a4e4c4146200014457806350320208146200015b578063715018a6146200017c57600080fd5b80630dbffbcd14620000d257806311464fbe146200011c575b600080fd5b600154620000f39073ffffffffffffffffffffffffffffffffffffffff1681565b60405173ffffffffffffffffffffffffffffffffffffffff909116815260200160405180910390f35b620000f37f000000000000000000000000000000000000000000000000000000000000000081565b620000f36200015536600462000768565b62000203565b600254620000f39073ffffffffffffffffffffffffffffffffffffffff1681565b620001866200033f565b005b60005473ffffffffffffffffffffffffffffffffffffffff16620000f3565b62000186620001b836600462000859565b62000357565b620000f3620001cf36600462000768565b620003a8565b62000186620001e636600462000859565b620004e1565b62000186620001fd36600462000859565b62000532565b6000620003338260001b604051806020016200021f906200072b565b601f1982820381018352601f9091011660408190526001546002547f0000000000000000000000000000000000000000000000000000000000000000926200028e9273ffffffffffffffffffffffffffffffffffffffff908116928e929116908d908d908d90602401620008e5565b60408051601f19818403018152918152602080830180517bffffffffffffffffffffffffffffffffffffffffffffffffffffffff167f1848fe48000000000000000000000000000000000000000000000000000000001790529051620002f79392910162000942565b60408051601f19818403018152908290526200031792916020016200097b565b60405160208183030381529060405280519060200120620005f3565b90505b95945050505050565b6200034962000609565b6200035560006200068c565b565b6200036162000609565b600280547fffffffffffffffffffffffff00000000000000000000000000000000000000001673ffffffffffffffffffffffffffffffffffffffff92909216919091179055565b600080620003ba878787878762000203565b905073ffffffffffffffffffffffffffffffffffffffff81163b8015620003e45750905062000336565b60015460025460405186927f000000000000000000000000000000000000000000000000000000000000000092620004429273ffffffffffffffffffffffffffffffffffffffff928316928e9216908d908d908d90602401620008e5565b60408051601f198184030181529181526020820180517bffffffffffffffffffffffffffffffffffffffffffffffffffffffff167f1848fe480000000000000000000000000000000000000000000000000000000017905251620004a6906200072b565b620004b392919062000942565b8190604051809103906000f5905080158015620004d4573d6000803e3d6000fd5b5098975050505050505050565b620004eb62000609565b600180547fffffffffffffffffffffffff00000000000000000000000000000000000000001673ffffffffffffffffffffffffffffffffffffffff92909216919091179055565b6200053c62000609565b73ffffffffffffffffffffffffffffffffffffffff8116620005e5576040517f08c379a000000000000000000000000000000000000000000000000000000000815260206004820152602660248201527f4f776e61626c653a206e6577206f776e657220697320746865207a65726f206160448201527f646472657373000000000000000000000000000000000000000000000000000060648201526084015b60405180910390fd5b620005f0816200068c565b50565b60006200060283833062000701565b9392505050565b60005473ffffffffffffffffffffffffffffffffffffffff16331462000355576040517f08c379a000000000000000000000000000000000000000000000000000000000815260206004820181905260248201527f4f776e61626c653a2063616c6c6572206973206e6f7420746865206f776e65726044820152606401620005dc565b6000805473ffffffffffffffffffffffffffffffffffffffff8381167fffffffffffffffffffffffff0000000000000000000000000000000000000000831681178455604051919092169283917f8be0079c531659141344cd1fd0a4f28419497f9722a3daafe3b4186f6b6457e09190a35050565b6000604051836040820152846020820152828152600b8101905060ff815360559020949350505050565b6104ee80620009af83390190565b7f4e487b7100000000000000000000000000000000000000000000000000000000600052604160045260246000fd5b600080600080600060a086880312156200078157600080fd5b8535945060208601359350604086013561ffff81168114620007a257600080fd5b9250606086013567ffffffffffffffff80821115620007c057600080fd5b818801915088601f830112620007d557600080fd5b813581811115620007ea57620007ea62000739565b604051601f8201601f19908116603f0116810190838211818310171562000815576200081562000739565b816040528281528b60208487010111156200082f57600080fd5b82602086016020830137600092810160200192909252509699959850939660800135949350505050565b6000602082840312156200086c57600080fd5b813573ffffffffffffffffffffffffffffffffffffffff811681146200060257600080fd5b60005b83811015620008ae57818101518382015260200162000894565b50506000910152565b60008151808452620008d181602086016020860162000891565b601f01601f19169290920160200192915050565b600073ffffffffffffffffffffffffffffffffffffffff808916835287602084015280871660408401525084606083015261ffff8416608083015260c060a08301526200093660c0830184620008b7565b98975050505050505050565b73ffffffffffffffffffffffffffffffffffffffff83168152604060208201526000620009736040830184620008b7565b949350505050565b600083516200098f81846020880162000891565b835190830190620009a581836020880162000891565b0194935050505056fe60806040526040516104ee3803806104ee833981016040819052610022916102de565b61002e82826000610035565b50506103fb565b61003e83610061565b60008251118061004b5750805b1561005c5761005a83836100a1565b505b505050565b61006a816100cd565b6040516001600160a01b038216907fbc7cd75a20ee27fd9adebab32041f755214dbc6bffa90cc0225b39da2e5c2d3b90600090a250565b60606100c683836040518060600160405280602781526020016104c760279139610180565b9392505050565b6001600160a01b0381163b61013f5760405162461bcd60e51b815260206004820152602d60248201527f455243313936373a206e657720696d706c656d656e746174696f6e206973206e60448201526c1bdd08184818dbdb9d1c9858dd609a1b60648201526084015b60405180910390fd5b7f360894a13ba1a3210667c828492db98dca3e2076cc3735a920a3ca505d382bbc80546001600160a01b0319166001600160a01b0392909216919091179055565b6060600080856001600160a01b03168560405161019d91906103ac565b600060405180830381855af49150503d80600081146101d8576040519150601f19603f3d011682016040523d82523d6000602084013e6101dd565b606091505b5090925090506101ef868383876101f9565b9695505050505050565b60608315610268578251600003610261576001600160a01b0385163b6102615760405162461bcd60e51b815260206004820152601d60248201527f416464726573733a2063616c6c20746f206e6f6e2d636f6e74726163740000006044820152606401610136565b5081610272565b610272838361027a565b949350505050565b81511561028a5781518083602001fd5b8060405162461bcd60e51b815260040161013691906103c8565b634e487b7160e01b600052604160045260246000fd5b60005b838110156102d55781810151838201526020016102bd565b50506000910152565b600080604083850312156102f157600080fd5b82516001600160a01b038116811461030857600080fd5b60208401519092506001600160401b038082111561032557600080fd5b818501915085601f83011261033957600080fd5b81518181111561034b5761034b6102a4565b604051601f8201601f19908116603f01168101908382118183101715610373576103736102a4565b8160405282815288602084870101111561038c57600080fd5b61039d8360208301602088016102ba565b80955050505050509250929050565b600082516103be8184602087016102ba565b9190910192915050565b60208152600082518060208401526103e78160408501602087016102ba565b601f01601f19169190910160400192915050565b60be806104096000396000f3fe608060405236601057600e6013565b005b600e5b601f601b6021565b6065565b565b600060607f360894a13ba1a3210667c828492db98dca3e2076cc3735a920a3ca505d382bbc5473ffffffffffffffffffffffffffffffffffffffff1690565b905090565b3660008037600080366000845af43d6000803e8080156083573d6000f35b3d6000fdfea264697066735822122056fa6f15a336ab02d9e56bc0e99411736081e51bc50851f58ef1e5101ace279564736f6c63430008140033416464726573733a206c6f772d6c6576656c2064656c65676174652063616c6c206661696c6564a2646970667358221220660adc032c4543ee7c3aa1fc9de9f6a42abbe5193f5fcefbbc3e03f7dc3b828b64736f6c6343000814003360c0604052306080523480156200001557600080fd5b5060405162002ad038038062002ad0833981016040819052620000389162000118565b6001600160a01b03811660a0526200004f62000056565b506200014a565b600054610100900460ff1615620000c35760405162461bcd60e51b815260206004820152602760248201527f496e697469616c697a61626c653a20636f6e747261637420697320696e697469604482015266616c697a696e6760c81b606482015260840160405180910390fd5b60005460ff908116101562000116576000805460ff191660ff9081179091556040519081527f7f26b83ff96e1f2b6a682f133852f6798a09c465da95921460cefb38474024989060200160405180910390a15b565b6000602082840312156200012b57600080fd5b81516001600160a01b03811681146200014357600080fd5b9392505050565b60805160a051612913620001bd6000396000818161054b01528181610c4201528181610cdc0152818161139a015281816114d401528181611541015281816115f901526118fd015260008181610a5601528181610aec01528181610d8601528181610e1c0152610f1701526129136000f3fe6080604052600436106101e65760003560e01c80635288f33311610102578063b0d691fe11610095578063c623674f11610064578063c623674f146105ec578063d087d2881461060e578063e25fe17514610623578063f23a6e611461066957600080fd5b8063b0d691fe1461053c578063b61d27f61461056f578063bc197c811461058f578063c399ec88146105d757600080fd5b8063651029ce116100d1578063651029ce146104c65780636eaa112e146104e65780638afb235e146105065780638da5cb5b1461051c57600080fd5b80635288f3331461044c57806352d1902d1461047c57806356639abb146104915780635f550ea9146104a657600080fd5b80632b7ac3f31161017a5780633a871cdd116101495780633a871cdd146103f15780634a58db19146104115780634d44560d146104195780634f1ef2861461043957600080fd5b80632b7ac3f31461036e5780632eb4a7ab146103a65780633659cfe6146103bc578063395852ea146103dc57600080fd5b806318dfb3c7116101b657806318dfb3c7146102e457806319d8ac61146103045780632997e86b146103285780632a8c863c1461035857600080fd5b806223de29146101f257806301ffc9a714610219578063150b7a021461024e5780631848fe48146102c457600080fd5b366101ed57005b600080fd5b3480156101fe57600080fd5b5061021761020d366004611d61565b5050505050505050565b005b34801561022557600080fd5b50610239610234366004611e12565b6106af565b60405190151581526020015b60405180910390f35b34801561025a57600080fd5b50610293610269366004611e54565b7f150b7a020000000000000000000000000000000000000000000000000000000095945050505050565b6040517fffffffff000000000000000000000000000000000000000000000000000000009091168152602001610245565b3480156102d057600080fd5b506102176102df366004611f6c565b610794565b3480156102f057600080fd5b506102176102ff366004612053565b61093f565b34801561031057600080fd5b5061031a60085481565b604051908152602001610245565b34801561033457600080fd5b506102396103433660046120bf565b60046020526000908152604090205460ff1681565b34801561036457600080fd5b5061031a60055481565b34801561037a57600080fd5b5060025461038e906001600160a01b031681565b6040516001600160a01b039091168152602001610245565b3480156103b257600080fd5b5061031a60015481565b3480156103c857600080fd5b506102176103d73660046120d8565b610a4c565b3480156103e857600080fd5b5061031a610be9565b3480156103fd57600080fd5b5061031a61040c3660046120f5565b610c1a565b610217610c40565b34801561042557600080fd5b50610217610434366004612149565b610cd2565b610217610447366004612195565b610d7c565b34801561045857600080fd5b506102396104673660046120bf565b60096020526000908152604090205460ff1681565b34801561048857600080fd5b5061031a610f0a565b34801561049d57600080fd5b50610239610fcf565b3480156104b257600080fd5b506102396104c1366004612253565b610fe6565b3480156104d257600080fd5b5060065461038e906001600160a01b031681565b3480156104f257600080fd5b50610239610501366004612294565b61113a565b34801561051257600080fd5b5061031a60075481565b34801561052857600080fd5b50600a5461038e906001600160a01b031681565b34801561054857600080fd5b507f000000000000000000000000000000000000000000000000000000000000000061038e565b34801561057b57600080fd5b5061021761058a3660046122e2565b61130a565b34801561059b57600080fd5b506102936105aa366004612332565b7fbc197c810000000000000000000000000000000000000000000000000000000098975050505050505050565b3480156105e357600080fd5b5061031a611361565b3480156105f857600080fd5b50610601611406565b6040516102459190612420565b34801561061a57600080fd5b5061031a611494565b34801561062f57600080fd5b506002546106569074010000000000000000000000000000000000000000900461ffff1681565b60405161ffff9091168152602001610245565b34801561067557600080fd5b50610293610684366004612433565b7ff23a6e61000000000000000000000000000000000000000000000000000000009695505050505050565b60007fffffffff0000000000000000000000000000000000000000000000000000000082167f150b7a0200000000000000000000000000000000000000000000000000000000148061074257507fffffffff0000000000000000000000000000000000000000000000000000000082167f4e2312e000000000000000000000000000000000000000000000000000000000145b8061078e57507fffffffff0000000000000000000000000000000000000000000000000000000082167f01ffc9a700000000000000000000000000000000000000000000000000000000145b92915050565b600054610100900460ff16158080156107b45750600054600160ff909116105b806107ce5750303b1580156107ce575060005460ff166001145b6108455760405162461bcd60e51b815260206004820152602e60248201527f496e697469616c697a61626c653a20636f6e747261637420697320616c72656160448201527f647920696e697469616c697a656400000000000000000000000000000000000060648201526084015b60405180910390fd5b6000805460ff19166001179055801561088557600080547fffffffffffffffffffffffffffffffffffffffffffffffffffffffffffff00ff166101001790555b61088f6000611503565b600680547fffffffffffffffffffffffff0000000000000000000000000000000000000000166001600160a01b03891617905560078690556108d38585858561158b565b801561093657600080547fffffffffffffffffffffffffffffffffffffffffffffffffffffffffffff00ff169055604051600181527f7f26b83ff96e1f2b6a682f133852f6798a09c465da95921460cefb38474024989060200160405180910390a15b50505050505050565b6109476115ee565b61094f61167d565b82811461099e5760405162461bcd60e51b815260206004820152601360248201527f77726f6e67206172726179206c656e6774687300000000000000000000000000604482015260640161083c565b60005b83811015610a4557610a338585838181106109be576109be6124af565b90506020020160208101906109d391906120d8565b60008585858181106109e7576109e76124af565b90506020028101906109f991906124de565b8080601f0160208091040260200160405190810160405280939291908181526020018383808284376000920191909152506116d592505050565b80610a3d81612572565b9150506109a1565b5050505050565b6001600160a01b037f0000000000000000000000000000000000000000000000000000000000000000163003610aea5760405162461bcd60e51b815260206004820152602c60248201527f46756e6374696f6e206d7573742062652063616c6c6564207468726f7567682060448201527f64656c656761746563616c6c0000000000000000000000000000000000000000606482015260840161083c565b7f00000000000000000000000000000000000000000000000000000000000000006001600160a01b0316610b457f360894a13ba1a3210667c828492db98dca3e2076cc3735a920a3ca505d382bbc546001600160a01b031690565b6001600160a01b031614610bc15760405162461bcd60e51b815260206004820152602c60248201527f46756e6374696f6e206d7573742062652063616c6c6564207468726f7567682060448201527f6163746976652070726f78790000000000000000000000000000000000000000606482015260840161083c565b610bca81611745565b60408051600080825260208201909252610be69183919061174d565b50565b600254600090610c159074010000000000000000000000000000000000000000900461ffff164261258c565b905090565b6000610c246118f2565b610c2e848461196a565b9050610c39826119e1565b9392505050565b7f00000000000000000000000000000000000000000000000000000000000000006040517fb760faf90000000000000000000000000000000000000000000000000000000081523060048201526001600160a01b03919091169063b760faf99034906024016000604051808303818588803b158015610cbe57600080fd5b505af1158015610a45573d6000803e3d6000fd5b610cda611a2e565b7f00000000000000000000000000000000000000000000000000000000000000006040517f205c28780000000000000000000000000000000000000000000000000000000081526001600160a01b03848116600483015260248201849052919091169063205c287890604401600060405180830381600087803b158015610d6057600080fd5b505af1158015610d74573d6000803e3d6000fd5b505050505050565b6001600160a01b037f0000000000000000000000000000000000000000000000000000000000000000163003610e1a5760405162461bcd60e51b815260206004820152602c60248201527f46756e6374696f6e206d7573742062652063616c6c6564207468726f7567682060448201527f64656c656761746563616c6c0000000000000000000000000000000000000000606482015260840161083c565b7f00000000000000000000000000000000000000000000000000000000000000006001600160a01b0316610e757f360894a13ba1a3210667c828492db98dca3e2076cc3735a920a3ca505d382bbc546001600160a01b031690565b6001600160a01b031614610ef15760405162461bcd60e51b815260206004820152602c60248201527f46756e6374696f6e206d7573742062652063616c6c6564207468726f7567682060448201527f6163746976652070726f78790000000000000000000000000000000000000000606482015260840161083c565b610efa82611745565b610f068282600161174d565b5050565b6000306001600160a01b037f00000000000000000000000000000000000000000000000000000000000000001614610faa5760405162461bcd60e51b815260206004820152603860248201527f555550535570677261646561626c653a206d757374206e6f742062652063616c60448201527f6c6564207468726f7567682064656c656761746563616c6c0000000000000000606482015260840161083c565b507f360894a13ba1a3210667c828492db98dca3e2076cc3735a920a3ca505d382bbc90565b6000610fdd612a30426125c7565b60085411905090565b60008281526009602052604081205460ff16156110455760405162461bcd60e51b815260206004820152601460248201527f4455504c4943415445445f4e554c4c4946494552000000000000000000000000604482015260640161083c565b6006546007546040517fd2955cd60000000000000000000000000000000000000000000000000000000081526001600160a01b039092169163d2955cd691611098918991908990899089906004016125da565b602060405180830381865afa1580156110b5573d6000803e3d6000fd5b505050506040513d601f19601f820116820180604052508101906110d9919061262c565b61110f576040517f9bdd3e1300000000000000000000000000000000000000000000000000000000815260040160405180910390fd5b506000828152600960205260409020805460ff1916600190811790915560088490555b949350505050565b60008281526004602052604081205460ff16156111995760405162461bcd60e51b815260206004820152601460248201527f4455504c4943415445445f4e554c4c4946494552000000000000000000000000604482015260640161083c565b6040805160038082526080820190925260009160208201606080368337019050509050600154816000815181106111d2576111d26124af565b60200260200101818152505083816001815181106111f2576111f26124af565b6020026020010181815250508260001b81600281518110611215576112156124af565b60209081029190910101526002546040517fea50d0e40000000000000000000000000000000000000000000000000000000081526001600160a01b039091169063ea50d0e49061126b908890859060040161264e565b602060405180830381865afa158015611288573d6000803e3d6000fd5b505050506040513d601f19601f820116820180604052508101906112ac919061262c565b6112e2576040517fff3ee09d00000000000000000000000000000000000000000000000000000000815260040160405180910390fd5b50506000828152600460205260409020805460ff191660019081179091556005829055610c39565b6113126115ee565b61131a61167d565b61135b848484848080601f0160208091040260200160405190810160405280939291908181526020018383808284376000920191909152506116d592505050565b50505050565b6040517f70a082310000000000000000000000000000000000000000000000000000000081523060048201526000906001600160a01b037f000000000000000000000000000000000000000000000000000000000000000016906370a08231906024015b602060405180830381865afa1580156113e2573d6000803e3d6000fd5b505050506040513d601f19601f82011682018060405250810190610c1591906126a5565b60038054611413906126be565b80601f016020809104026020016040519081016040528092919081815260200182805461143f906126be565b801561148c5780601f106114615761010080835404028352916020019161148c565b820191906000526020600020905b81548152906001019060200180831161146f57829003601f168201915b505050505081565b6040517f35567e1a000000000000000000000000000000000000000000000000000000008152306004820152600060248201819052906001600160a01b037f000000000000000000000000000000000000000000000000000000000000000016906335567e1a906044016113c5565b600a80547fffffffffffffffffffffffff0000000000000000000000000000000000000000166001600160a01b0383811691821790925560405190917f000000000000000000000000000000000000000000000000000000000000000016907f526ffefac8167421b9048ae3377810715d834479565b0182ea4155f0efa4c38090600090a350565b60028054600185905561ffff841674010000000000000000000000000000000000000000027fffffffffffffffffffff000000000000000000000000000000000000000000009091166001600160a01b038716171790556003610a458282612757565b336001600160a01b037f000000000000000000000000000000000000000000000000000000000000000016148061162f5750600a546001600160a01b031633145b61167b5760405162461bcd60e51b815260206004820181905260248201527f6163636f756e743a206e6f74204f776e6572206f7220456e747279506f696e74604482015260640161083c565b565b600554611688610be9565b1461167b5760405162461bcd60e51b815260206004820152601060248201527f494e56414c49445f54494d455354455000000000000000000000000000000000604482015260640161083c565b600080846001600160a01b031684846040516116f19190612817565b60006040518083038185875af1925050503d806000811461172e576040519150601f19603f3d011682016040523d82523d6000602084013e611733565b606091505b509150915081610a4557805160208201fd5b610be6611a2e565b7f4910fdfa16fed3260ed0e7147f7cc6da11a60208b5b9406d12a635614ffd91435460ff16156117855761178083611a92565b505050565b826001600160a01b03166352d1902d6040518163ffffffff1660e01b8152600401602060405180830381865afa9250505080156117df575060408051601f3d908101601f191682019092526117dc918101906126a5565b60015b6118515760405162461bcd60e51b815260206004820152602e60248201527f45524331393637557067726164653a206e657720696d706c656d656e7461746960448201527f6f6e206973206e6f742055555053000000000000000000000000000000000000606482015260840161083c565b7f360894a13ba1a3210667c828492db98dca3e2076cc3735a920a3ca505d382bbc81146118e65760405162461bcd60e51b815260206004820152602960248201527f45524331393637557067726164653a20756e737570706f727465642070726f7860448201527f6961626c65555549440000000000000000000000000000000000000000000000606482015260840161083c565b50611780838383611b68565b336001600160a01b037f0000000000000000000000000000000000000000000000000000000000000000161461167b5760405162461bcd60e51b815260206004820152601c60248201527f6163636f756e743a206e6f742066726f6d20456e747279506f696e7400000000604482015260640161083c565b6000808080808080806119816101408b018b6124de565b81019061198e9190612833565b96509650965096509650965096506119a887878787610fe6565b15806119bc57506119ba83838361113a565b155b156119d157600197505050505050505061078e565b5060009998505050505050505050565b8015610be657604051600090339060001990849084818181858888f193505050503d8060008114610a45576040519150601f19603f3d011682016040523d82523d6000602084013e610a45565b600a546001600160a01b0316331480611a4657503330145b61167b5760405162461bcd60e51b815260206004820152600a60248201527f6f6e6c79206f776e657200000000000000000000000000000000000000000000604482015260640161083c565b6001600160a01b0381163b611b0f5760405162461bcd60e51b815260206004820152602d60248201527f455243313936373a206e657720696d706c656d656e746174696f6e206973206e60448201527f6f74206120636f6e747261637400000000000000000000000000000000000000606482015260840161083c565b7f360894a13ba1a3210667c828492db98dca3e2076cc3735a920a3ca505d382bbc80547fffffffffffffffffffffffff0000000000000000000000000000000000000000166001600160a01b0392909216919091179055565b611b7183611b8d565b600082511180611b7e5750805b156117805761135b8383611bcd565b611b9681611a92565b6040516001600160a01b038216907fbc7cd75a20ee27fd9adebab32041f755214dbc6bffa90cc0225b39da2e5c2d3b90600090a250565b6060610c3983836040518060600160405280602781526020016128b7602791396060600080856001600160a01b031685604051611c0a9190612817565b600060405180830381855af49150503d8060008114611c45576040519150601f19603f3d011682016040523d82523d6000602084013e611c4a565b606091505b5091509150611c5b86838387611c65565b9695505050505050565b60608315611cd4578251600003611ccd576001600160a01b0385163b611ccd5760405162461bcd60e51b815260206004820152601d60248201527f416464726573733a2063616c6c20746f206e6f6e2d636f6e7472616374000000604482015260640161083c565b5081611132565b6111328383815115611ce95781518083602001fd5b8060405162461bcd60e51b815260040161083c9190612420565b6001600160a01b0381168114610be657600080fd5b60008083601f840112611d2a57600080fd5b50813567ffffffffffffffff811115611d4257600080fd5b602083019150836020828501011115611d5a57600080fd5b9250929050565b60008060008060008060008060c0898b031215611d7d57600080fd5b8835611d8881611d03565b97506020890135611d9881611d03565b96506040890135611da881611d03565b955060608901359450608089013567ffffffffffffffff80821115611dcc57600080fd5b611dd88c838d01611d18565b909650945060a08b0135915080821115611df157600080fd5b50611dfe8b828c01611d18565b999c989b5096995094979396929594505050565b600060208284031215611e2457600080fd5b81357fffffffff0000000000000000000000000000000000000000000000000000000081168114610c3957600080fd5b600080600080600060808688031215611e6c57600080fd5b8535611e7781611d03565b94506020860135611e8781611d03565b935060408601359250606086013567ffffffffffffffff811115611eaa57600080fd5b611eb688828901611d18565b969995985093965092949392505050565b7f4e487b7100000000000000000000000000000000000000000000000000000000600052604160045260246000fd5b600067ffffffffffffffff80841115611f1157611f11611ec7565b604051601f8501601f19908116603f01168101908282118183101715611f3957611f39611ec7565b81604052809350858152868686011115611f5257600080fd5b858560208301376000602087830101525050509392505050565b60008060008060008060c08789031215611f8557600080fd5b8635611f9081611d03565b9550602087013594506040870135611fa781611d03565b935060608701359250608087013561ffff81168114611fc557600080fd5b915060a087013567ffffffffffffffff811115611fe157600080fd5b8701601f81018913611ff257600080fd5b61200189823560208401611ef6565b9150509295509295509295565b60008083601f84011261202057600080fd5b50813567ffffffffffffffff81111561203857600080fd5b6020830191508360208260051b8501011115611d5a57600080fd5b6000806000806040858703121561206957600080fd5b843567ffffffffffffffff8082111561208157600080fd5b61208d8883890161200e565b909650945060208701359150808211156120a657600080fd5b506120b38782880161200e565b95989497509550505050565b6000602082840312156120d157600080fd5b5035919050565b6000602082840312156120ea57600080fd5b8135610c3981611d03565b60008060006060848603121561210a57600080fd5b833567ffffffffffffffff81111561212157600080fd5b8401610160818703121561213457600080fd5b95602085013595506040909401359392505050565b6000806040838503121561215c57600080fd5b823561216781611d03565b946020939093013593505050565b600082601f83011261218657600080fd5b610c3983833560208501611ef6565b600080604083850312156121a857600080fd5b82356121b381611d03565b9150602083013567ffffffffffffffff8111156121cf57600080fd5b6121db85828601612175565b9150509250929050565b600082601f8301126121f657600080fd5b60405161010080820182811067ffffffffffffffff8211171561221b5761221b611ec7565b6040528301818582111561222e57600080fd5b845b82811015612248578035825260209182019101612230565b509195945050505050565b600080600080610160858703121561226a57600080fd5b84359350602085013592506040850135915061228986606087016121e5565b905092959194509250565b6000806000606084860312156122a957600080fd5b833567ffffffffffffffff8111156122c057600080fd5b6122cc86828701612175565b9660208601359650604090950135949350505050565b600080600080606085870312156122f857600080fd5b843561230381611d03565b935060208501359250604085013567ffffffffffffffff81111561232657600080fd5b6120b387828801611d18565b60008060008060008060008060a0898b03121561234e57600080fd5b883561235981611d03565b9750602089013561236981611d03565b9650604089013567ffffffffffffffff8082111561238657600080fd5b6123928c838d0161200e565b909850965060608b01359150808211156123ab57600080fd5b6123b78c838d0161200e565b909650945060808b0135915080821115611df157600080fd5b60005b838110156123eb5781810151838201526020016123d3565b50506000910152565b6000815180845261240c8160208601602086016123d0565b601f01601f19169290920160200192915050565b602081526000610c3960208301846123f4565b60008060008060008060a0878903121561244c57600080fd5b863561245781611d03565b9550602087013561246781611d03565b94506040870135935060608701359250608087013567ffffffffffffffff81111561249157600080fd5b61249d89828a01611d18565b979a9699509497509295939492505050565b7f4e487b7100000000000000000000000000000000000000000000000000000000600052603260045260246000fd5b60008083357fffffffffffffffffffffffffffffffffffffffffffffffffffffffffffffffe184360301811261251357600080fd5b83018035915067ffffffffffffffff82111561252e57600080fd5b602001915036819003821315611d5a57600080fd5b7f4e487b7100000000000000000000000000000000000000000000000000000000600052601160045260246000fd5b6000600019820361258557612585612543565b5060010190565b6000826125c2577f4e487b7100000000000000000000000000000000000000000000000000000000600052601260045260246000fd5b500490565b8181038181111561078e5761078e612543565b60006101808201905086825260208681840152856040840152846060840152608083018460005b600881101561261e57815183529183019190830190600101612601565b505050509695505050505050565b60006020828403121561263e57600080fd5b81518015158114610c3957600080fd5b60408152600061266160408301856123f4565b82810360208481019190915284518083528582019282019060005b818110156126985784518352938301939183019160010161267c565b5090979650505050505050565b6000602082840312156126b757600080fd5b5051919050565b600181811c908216806126d257607f821691505b60208210810361270b577f4e487b7100000000000000000000000000000000000000000000000000000000600052602260045260246000fd5b50919050565b601f82111561178057600081815260208120601f850160051c810160208610156127385750805b601f850160051c820191505b81811015610d7457828155600101612744565b815167ffffffffffffffff81111561277157612771611ec7565b6127858161277f84546126be565b84612711565b602080601f8311600181146127ba57600084156127a25750858301515b600019600386901b1c1916600185901b178555610d74565b600085815260208120601f198616915b828110156127e9578886015182559484019460019091019084016127ca565b50858210156128075787850151600019600388901b60f8161c191681555b5050505050600190811b01905550565b600082516128298184602087016123d0565b9190910192915050565b60008060008060008060006101c0888a03121561284f57600080fd5b87359650602088013595506040880135945061286e8960608a016121e5565b935061016088013567ffffffffffffffff81111561288b57600080fd5b6128978a828b01612175565b93505061018088013591506101a088013590509295989194975092955056fe416464726573733a206c6f772d6c6576656c2064656c65676174652063616c6c206661696c6564a264697066735822122097758d677a37c435fe2eea05c11e5628f8e11f12eec6a6eefd5b9f5e6934e41164736f6c63430008140033",
    "linkReferences": {}
  },
  "methodIdentifiers": {
    "accountImplementation()": "11464fbe",
    "anonAadhaarVerifierAddr()": "0dbffbcd",
    "createAccount(uint256,bytes32,uint16,string,uint256)": "a6b8c60b",
    "getAccountAddress(uint256,bytes32,uint16,string,uint256)": "48a4e4c4",
    "noirOTPVerifier()": "50320208",
    "owner()": "8da5cb5b",
    "renounceOwnership()": "715018a6",
    "setAnonAadhaarVerifierAddr(address)": "db5a3aea",
    "setNoirOTPVerifier(address)": "a282ae56",
    "transferOwnership(address)": "f2fde38b"
  },
  "id": 48
}