{
  "abi": [
    {
      "inputs": [
        {
          "internalType": "contract IEntryPoint",
          "name": "anEntryPoint",
          "type": "address"
        }
      ],
      "stateMutability": "nonpayable",
      "type": "constructor"
    },
    {
      "inputs": [],
      "name": "PROOF_VERIFICATION_FAILED",
      "type": "error"
    },
    {
      "anonymous": false,
      "inputs": [
        {
          "indexed": true,
          "internalType": "contract IEntryPoint",
          "name": "entryPoint",
          "type": "address"
        },
        {
          "indexed": true,
          "internalType": "address",
          "name": "owner",
          "type": "address"
        }
      ],
      "name": "AccountInitialized",
      "type": "event"
    },
    {
      "anonymous": false,
      "inputs": [
        {
          "indexed": false,
          "internalType": "address",
          "name": "previousAdmin",
          "type": "address"
        },
        {
          "indexed": false,
          "internalType": "address",
          "name": "newAdmin",
          "type": "address"
        }
      ],
      "name": "AdminChanged",
      "type": "event"
    },
    {
      "anonymous": false,
      "inputs": [
        {
          "indexed": true,
          "internalType": "address",
          "name": "beacon",
          "type": "address"
        }
      ],
      "name": "BeaconUpgraded",
      "type": "event"
    },
    {
      "anonymous": false,
      "inputs": [
        {
          "indexed": false,
          "internalType": "uint8",
          "name": "version",
          "type": "uint8"
        }
      ],
      "name": "Initialized",
      "type": "event"
    },
    {
      "anonymous": false,
      "inputs": [
        {
          "indexed": true,
          "internalType": "address",
          "name": "implementation",
          "type": "address"
        }
      ],
      "name": "Upgraded",
      "type": "event"
    },
    {
      "inputs": [],
      "name": "addDeposit",
      "outputs": [],
      "stateMutability": "payable",
      "type": "function"
    },
    {
      "inputs": [],
      "name": "currentTimestep",
      "outputs": [
        {
          "internalType": "uint256",
          "name": "",
          "type": "uint256"
        }
      ],
      "stateMutability": "view",
      "type": "function"
    },
    {
      "inputs": [],
      "name": "entryPoint",
      "outputs": [
        {
          "internalType": "contract IEntryPoint",
          "name": "",
          "type": "address"
        }
      ],
      "stateMutability": "view",
      "type": "function"
    },
    {
      "inputs": [
        {
          "internalType": "address",
          "name": "dest",
          "type": "address"
        },
        {
          "internalType": "uint256",
          "name": "value",
          "type": "uint256"
        },
        {
          "internalType": "bytes",
          "name": "func",
          "type": "bytes"
        }
      ],
      "name": "execute",
      "outputs": [],
      "stateMutability": "nonpayable",
      "type": "function"
    },
    {
      "inputs": [
        {
          "internalType": "address[]",
          "name": "dest",
          "type": "address[]"
        },
        {
          "internalType": "bytes[]",
          "name": "func",
          "type": "bytes[]"
        }
      ],
      "name": "executeBatch",
      "outputs": [],
      "stateMutability": "nonpayable",
      "type": "function"
    },
    {
      "inputs": [],
      "name": "getDeposit",
      "outputs": [
        {
          "internalType": "uint256",
          "name": "",
          "type": "uint256"
        }
      ],
      "stateMutability": "view",
      "type": "function"
    },
    {
      "inputs": [],
      "name": "getNonce",
      "outputs": [
        {
          "internalType": "uint256",
          "name": "",
          "type": "uint256"
        }
      ],
      "stateMutability": "view",
      "type": "function"
    },
    {
      "inputs": [
        {
          "internalType": "address",
          "name": "_verifier",
          "type": "address"
        },
        {
          "internalType": "bytes32",
          "name": "_merkleRoot",
          "type": "bytes32"
        },
        {
          "internalType": "uint16",
          "name": "_step",
          "type": "uint16"
        },
        {
          "internalType": "string",
          "name": "_ipfsHash",
          "type": "string"
        }
      ],
      "name": "initialize",
      "outputs": [],
      "stateMutability": "nonpayable",
      "type": "function"
    },
    {
      "inputs": [],
      "name": "ipfsHash",
      "outputs": [
        {
          "internalType": "string",
          "name": "",
          "type": "string"
        }
      ],
      "stateMutability": "view",
      "type": "function"
    },
    {
      "inputs": [],
      "name": "merkleRoot",
      "outputs": [
        {
          "internalType": "bytes32",
          "name": "",
          "type": "bytes32"
        }
      ],
      "stateMutability": "view",
      "type": "function"
    },
    {
      "inputs": [
        {
          "internalType": "bytes32",
          "name": "",
          "type": "bytes32"
        }
      ],
      "name": "nullifiers",
      "outputs": [
        {
          "internalType": "bool",
          "name": "",
          "type": "bool"
        }
      ],
      "stateMutability": "view",
      "type": "function"
    },
    {
      "inputs": [
        {
          "internalType": "address",
          "name": "",
          "type": "address"
        },
        {
          "internalType": "address",
          "name": "",
          "type": "address"
        },
        {
          "internalType": "uint256[]",
          "name": "",
          "type": "uint256[]"
        },
        {
          "internalType": "uint256[]",
          "name": "",
          "type": "uint256[]"
        },
        {
          "internalType": "bytes",
          "name": "",
          "type": "bytes"
        }
      ],
      "name": "onERC1155BatchReceived",
      "outputs": [
        {
          "internalType": "bytes4",
          "name": "",
          "type": "bytes4"
        }
      ],
      "stateMutability": "pure",
      "type": "function"
    },
    {
      "inputs": [
        {
          "internalType": "address",
          "name": "",
          "type": "address"
        },
        {
          "internalType": "address",
          "name": "",
          "type": "address"
        },
        {
          "internalType": "uint256",
          "name": "",
          "type": "uint256"
        },
        {
          "internalType": "uint256",
          "name": "",
          "type": "uint256"
        },
        {
          "internalType": "bytes",
          "name": "",
          "type": "bytes"
        }
      ],
      "name": "onERC1155Received",
      "outputs": [
        {
          "internalType": "bytes4",
          "name": "",
          "type": "bytes4"
        }
      ],
      "stateMutability": "pure",
      "type": "function"
    },
    {
      "inputs": [
        {
          "internalType": "address",
          "name": "",
          "type": "address"
        },
        {
          "internalType": "address",
          "name": "",
          "type": "address"
        },
        {
          "internalType": "uint256",
          "name": "",
          "type": "uint256"
        },
        {
          "internalType": "bytes",
          "name": "",
          "type": "bytes"
        }
      ],
      "name": "onERC721Received",
      "outputs": [
        {
          "internalType": "bytes4",
          "name": "",
          "type": "bytes4"
        }
      ],
      "stateMutability": "pure",
      "type": "function"
    },
    {
      "inputs": [],
      "name": "owner",
      "outputs": [
        {
          "internalType": "address",
          "name": "",
          "type": "address"
        }
      ],
      "stateMutability": "view",
      "type": "function"
    },
    {
      "inputs": [],
      "name": "proxiableUUID",
      "outputs": [
        {
          "internalType": "bytes32",
          "name": "",
          "type": "bytes32"
        }
      ],
      "stateMutability": "view",
      "type": "function"
    },
    {
      "inputs": [],
      "name": "step",
      "outputs": [
        {
          "internalType": "uint16",
          "name": "",
          "type": "uint16"
        }
      ],
      "stateMutability": "view",
      "type": "function"
    },
    {
      "inputs": [
        {
          "internalType": "bytes4",
          "name": "interfaceId",
          "type": "bytes4"
        }
      ],
      "name": "supportsInterface",
      "outputs": [
        {
          "internalType": "bool",
          "name": "",
          "type": "bool"
        }
      ],
      "stateMutability": "view",
      "type": "function"
    },
    {
      "inputs": [
        {
          "internalType": "address",
          "name": "",
          "type": "address"
        },
        {
          "internalType": "address",
          "name": "",
          "type": "address"
        },
        {
          "internalType": "address",
          "name": "",
          "type": "address"
        },
        {
          "internalType": "uint256",
          "name": "",
          "type": "uint256"
        },
        {
          "internalType": "bytes",
          "name": "",
          "type": "bytes"
        },
        {
          "internalType": "bytes",
          "name": "",
          "type": "bytes"
        }
      ],
      "name": "tokensReceived",
      "outputs": [],
      "stateMutability": "pure",
      "type": "function"
    },
    {
      "inputs": [
        {
          "internalType": "address",
          "name": "newImplementation",
          "type": "address"
        }
      ],
      "name": "upgradeTo",
      "outputs": [],
      "stateMutability": "nonpayable",
      "type": "function"
    },
    {
      "inputs": [
        {
          "internalType": "address",
          "name": "newImplementation",
          "type": "address"
        },
        {
          "internalType": "bytes",
          "name": "data",
          "type": "bytes"
        }
      ],
      "name": "upgradeToAndCall",
      "outputs": [],
      "stateMutability": "payable",
      "type": "function"
    },
    {
      "inputs": [
        {
          "components": [
            {
              "internalType": "address",
              "name": "sender",
              "type": "address"
            },
            {
              "internalType": "uint256",
              "name": "nonce",
              "type": "uint256"
            },
            {
              "internalType": "bytes",
              "name": "initCode",
              "type": "bytes"
            },
            {
              "internalType": "bytes",
              "name": "callData",
              "type": "bytes"
            },
            {
              "internalType": "uint256",
              "name": "callGasLimit",
              "type": "uint256"
            },
            {
              "internalType": "uint256",
              "name": "verificationGasLimit",
              "type": "uint256"
            },
            {
              "internalType": "uint256",
              "name": "preVerificationGas",
              "type": "uint256"
            },
            {
              "internalType": "uint256",
              "name": "maxFeePerGas",
              "type": "uint256"
            },
            {
              "internalType": "uint256",
              "name": "maxPriorityFeePerGas",
              "type": "uint256"
            },
            {
              "internalType": "bytes",
              "name": "paymasterAndData",
              "type": "bytes"
            },
            {
              "internalType": "bytes",
              "name": "signature",
              "type": "bytes"
            }
          ],
          "internalType": "struct UserOperation",
          "name": "userOp",
          "type": "tuple"
        },
        {
          "internalType": "bytes32",
          "name": "userOpHash",
          "type": "bytes32"
        }
      ],
      "name": "validateSignature",
      "outputs": [
        {
          "internalType": "uint256",
          "name": "validationData",
          "type": "uint256"
        }
      ],
      "stateMutability": "nonpayable",
      "type": "function"
    },
    {
      "inputs": [
        {
          "components": [
            {
              "internalType": "address",
              "name": "sender",
              "type": "address"
            },
            {
              "internalType": "uint256",
              "name": "nonce",
              "type": "uint256"
            },
            {
              "internalType": "bytes",
              "name": "initCode",
              "type": "bytes"
            },
            {
              "internalType": "bytes",
              "name": "callData",
              "type": "bytes"
            },
            {
              "internalType": "uint256",
              "name": "callGasLimit",
              "type": "uint256"
            },
            {
              "internalType": "uint256",
              "name": "verificationGasLimit",
              "type": "uint256"
            },
            {
              "internalType": "uint256",
              "name": "preVerificationGas",
              "type": "uint256"
            },
            {
              "internalType": "uint256",
              "name": "maxFeePerGas",
              "type": "uint256"
            },
            {
              "internalType": "uint256",
              "name": "maxPriorityFeePerGas",
              "type": "uint256"
            },
            {
              "internalType": "bytes",
              "name": "paymasterAndData",
              "type": "bytes"
            },
            {
              "internalType": "bytes",
              "name": "signature",
              "type": "bytes"
            }
          ],
          "internalType": "struct UserOperation",
          "name": "userOp",
          "type": "tuple"
        },
        {
          "internalType": "bytes32",
          "name": "userOpHash",
          "type": "bytes32"
        },
        {
          "internalType": "uint256",
          "name": "missingAccountFunds",
          "type": "uint256"
        }
      ],
      "name": "validateUserOp",
      "outputs": [
        {
          "internalType": "uint256",
          "name": "validationData",
          "type": "uint256"
        }
      ],
      "stateMutability": "nonpayable",
      "type": "function"
    },
    {
      "inputs": [],
      "name": "verifier",
      "outputs": [
        {
          "internalType": "address",
          "name": "",
          "type": "address"
        }
      ],
      "stateMutability": "view",
      "type": "function"
    },
    {
      "inputs": [
        {
          "internalType": "bytes",
          "name": "proof",
          "type": "bytes"
        },
        {
          "internalType": "bytes32",
          "name": "_nullifierHash",
          "type": "bytes32"
        },
        {
          "internalType": "uint256",
          "name": "timestep",
          "type": "uint256"
        }
      ],
      "name": "verifyOTP",
      "outputs": [
        {
          "internalType": "bool",
          "name": "",
          "type": "bool"
        }
      ],
      "stateMutability": "nonpayable",
      "type": "function"
    },
    {
      "inputs": [
        {
          "internalType": "address payable",
          "name": "withdrawAddress",
          "type": "address"
        },
        {
          "internalType": "uint256",
          "name": "amount",
          "type": "uint256"
        }
      ],
      "name": "withdrawDepositTo",
      "outputs": [],
      "stateMutability": "nonpayable",
      "type": "function"
    },
    {
      "stateMutability": "payable",
      "type": "receive"
    }
  ],
  "bytecode": {
    "object": "0x60c0604052306080523480156200001557600080fd5b50604051620026b0380380620026b0833981016040819052620000389162000118565b6001600160a01b03811660a0526200004f62000056565b506200014a565b600054610100900460ff1615620000c35760405162461bcd60e51b815260206004820152602760248201527f496e697469616c697a61626c653a20636f6e747261637420697320696e697469604482015266616c697a696e6760c81b606482015260840160405180910390fd5b60005460ff908116101562000116576000805460ff191660ff9081179091556040519081527f7f26b83ff96e1f2b6a682f133852f6798a09c465da95921460cefb38474024989060200160405180910390a15b565b6000602082840312156200012b57600080fd5b81516001600160a01b03811681146200014357600080fd5b9392505050565b60805160a0516124f3620001bd6000396000818161046301528181610b9c01528181610c36015281816111f00152818161132f0152818161139c0152818161145401526117000152600081816109e101528181610a7701528181610ce001528181610d760152610e7101526124f36000f3fe6080604052600436106101a45760003560e01c80634d44560d116100e1578063b61d27f61161008a578063c623674f11610064578063c623674f14610504578063d087d28814610526578063e25fe1751461053b578063f23a6e611461058157600080fd5b8063b61d27f614610487578063bc197c81146104a7578063c399ec88146104ef57600080fd5b80636eaa112e116100bb5780636eaa112e146104145780638da5cb5b14610434578063b0d691fe1461045457600080fd5b80634d44560d146103cc5780634f1ef286146103ec57806352d1902d146103ff57600080fd5b80632997e86b1161014e5780632eb4a7ab116101285780632eb4a7ab1461036e5780633659cfe6146103845780633a871cdd146103a45780634a58db19146103c457600080fd5b80632997e86b146102f05780632a8c863c146103205780632b7ac3f31461033657600080fd5b8063150b7a021161017f578063150b7a021461022c57806318dfb3c7146102a257806322f383ea146102c257600080fd5b806223de29146101b057806301ffc9a7146101d757806304b627221461020c57600080fd5b366101ab57005b600080fd5b3480156101bc57600080fd5b506101d56101cb366004611afa565b5050505050505050565b005b3480156101e357600080fd5b506101f76101f2366004611bab565b6105c7565b60405190151581526020015b60405180910390f35b34801561021857600080fd5b506101d5610227366004611c92565b6106ac565b34801561023857600080fd5b50610271610247366004611d19565b7f150b7a020000000000000000000000000000000000000000000000000000000095945050505050565b6040517fffffffff000000000000000000000000000000000000000000000000000000009091168152602001610203565b3480156102ae57600080fd5b506101d56102bd366004611dd1565b61083b565b3480156102ce57600080fd5b506102e26102dd366004611e56565b61098a565b604051908152602001610203565b3480156102fc57600080fd5b506101f761030b366004611e9b565b60046020526000908152604090205460ff1681565b34801561032c57600080fd5b506102e260055481565b34801561034257600080fd5b50600254610356906001600160a01b031681565b6040516001600160a01b039091168152602001610203565b34801561037a57600080fd5b506102e260015481565b34801561039057600080fd5b506101d561039f366004611eb4565b6109d7565b3480156103b057600080fd5b506102e26103bf366004611ed1565b610b74565b6101d5610b9a565b3480156103d857600080fd5b506101d56103e7366004611f1f565b610c2c565b6101d56103fa366004611f6b565b610cd6565b34801561040b57600080fd5b506102e2610e64565b34801561042057600080fd5b506101f761042f366004611fbb565b610f29565b34801561044057600080fd5b50600654610356906001600160a01b031681565b34801561046057600080fd5b507f0000000000000000000000000000000000000000000000000000000000000000610356565b34801561049357600080fd5b506101d56104a2366004611ff3565b611117565b3480156104b357600080fd5b506102716104c2366004612043565b7fbc197c810000000000000000000000000000000000000000000000000000000098975050505050505050565b3480156104fb57600080fd5b506102e26111b7565b34801561051057600080fd5b50610519611261565b6040516102039190612131565b34801561053257600080fd5b506102e26112ef565b34801561054757600080fd5b5060025461056e9074010000000000000000000000000000000000000000900461ffff1681565b60405161ffff9091168152602001610203565b34801561058d57600080fd5b5061027161059c366004612144565b7ff23a6e61000000000000000000000000000000000000000000000000000000009695505050505050565b60007fffffffff0000000000000000000000000000000000000000000000000000000082167f150b7a0200000000000000000000000000000000000000000000000000000000148061065a57507fffffffff0000000000000000000000000000000000000000000000000000000082167f4e2312e000000000000000000000000000000000000000000000000000000000145b806106a657507fffffffff0000000000000000000000000000000000000000000000000000000082167f01ffc9a700000000000000000000000000000000000000000000000000000000145b92915050565b600054610100900460ff16158080156106cc5750600054600160ff909116105b806106e65750303b1580156106e6575060005460ff166001145b61075d5760405162461bcd60e51b815260206004820152602e60248201527f496e697469616c697a61626c653a20636f6e747261637420697320616c72656160448201527f647920696e697469616c697a656400000000000000000000000000000000000060648201526084015b60405180910390fd5b600080547fffffffffffffffffffffffffffffffffffffffffffffffffffffffffffffff0016600117905580156107bb57600080547fffffffffffffffffffffffffffffffffffffffffffffffffffffffffffff00ff166101001790555b6107c5600061135e565b6107d1858585856113e6565b801561083457600080547fffffffffffffffffffffffffffffffffffffffffffffffffffffffffffff00ff169055604051600181527f7f26b83ff96e1f2b6a682f133852f6798a09c465da95921460cefb38474024989060200160405180910390a15b5050505050565b600554421461088c5760405162461bcd60e51b815260206004820152601060248201527f494e56414c49445f54494d4553544550000000000000000000000000000000006044820152606401610754565b610894611449565b8281146108e35760405162461bcd60e51b815260206004820152601360248201527f77726f6e67206172726179206c656e67746873000000000000000000000000006044820152606401610754565b60005b8381101561083457610978858583818110610903576109036121c0565b90506020020160208101906109189190611eb4565b600085858581811061092c5761092c6121c0565b905060200281019061093e91906121ef565b8080601f0160208091040260200160405190810160405280939291908181526020018383808284376000920191909152506114d892505050565b8061098281612254565b9150506108e6565b600080808061099d6101408701876121ef565b8101906109aa9190611fbb565b9250925092506109bb838383610f29565b6109cb57600193505050506106a6565b50600095945050505050565b6001600160a01b037f0000000000000000000000000000000000000000000000000000000000000000163003610a755760405162461bcd60e51b815260206004820152602c60248201527f46756e6374696f6e206d7573742062652063616c6c6564207468726f7567682060448201527f64656c656761746563616c6c00000000000000000000000000000000000000006064820152608401610754565b7f00000000000000000000000000000000000000000000000000000000000000006001600160a01b0316610ad07f360894a13ba1a3210667c828492db98dca3e2076cc3735a920a3ca505d382bbc546001600160a01b031690565b6001600160a01b031614610b4c5760405162461bcd60e51b815260206004820152602c60248201527f46756e6374696f6e206d7573742062652063616c6c6564207468726f7567682060448201527f6163746976652070726f787900000000000000000000000000000000000000006064820152608401610754565b610b5581611548565b60408051600080825260208201909252610b7191839190611550565b50565b6000610b7e6116f5565b610b88848461098a565b9050610b938261176d565b9392505050565b7f00000000000000000000000000000000000000000000000000000000000000006040517fb760faf90000000000000000000000000000000000000000000000000000000081523060048201526001600160a01b03919091169063b760faf99034906024016000604051808303818588803b158015610c1857600080fd5b505af1158015610834573d6000803e3d6000fd5b610c346117ba565b7f00000000000000000000000000000000000000000000000000000000000000006040517f205c28780000000000000000000000000000000000000000000000000000000081526001600160a01b03848116600483015260248201849052919091169063205c287890604401600060405180830381600087803b158015610cba57600080fd5b505af1158015610cce573d6000803e3d6000fd5b505050505050565b6001600160a01b037f0000000000000000000000000000000000000000000000000000000000000000163003610d745760405162461bcd60e51b815260206004820152602c60248201527f46756e6374696f6e206d7573742062652063616c6c6564207468726f7567682060448201527f64656c656761746563616c6c00000000000000000000000000000000000000006064820152608401610754565b7f00000000000000000000000000000000000000000000000000000000000000006001600160a01b0316610dcf7f360894a13ba1a3210667c828492db98dca3e2076cc3735a920a3ca505d382bbc546001600160a01b031690565b6001600160a01b031614610e4b5760405162461bcd60e51b815260206004820152602c60248201527f46756e6374696f6e206d7573742062652063616c6c6564207468726f7567682060448201527f6163746976652070726f787900000000000000000000000000000000000000006064820152608401610754565b610e5482611548565b610e6082826001611550565b5050565b6000306001600160a01b037f00000000000000000000000000000000000000000000000000000000000000001614610f045760405162461bcd60e51b815260206004820152603860248201527f555550535570677261646561626c653a206d757374206e6f742062652063616c60448201527f6c6564207468726f7567682064656c656761746563616c6c00000000000000006064820152608401610754565b507f360894a13ba1a3210667c828492db98dca3e2076cc3735a920a3ca505d382bbc90565b60008281526004602052604081205460ff1615610f885760405162461bcd60e51b815260206004820152601460248201527f4455504c4943415445445f4e554c4c49464945520000000000000000000000006044820152606401610754565b604080516003808252608082019092526000916020820160608036833701905050905060015481600081518110610fc157610fc16121c0565b6020026020010181815250508381600181518110610fe157610fe16121c0565b6020026020010181815250508260001b81600281518110611004576110046121c0565b60209081029190910101526002546040517fea50d0e40000000000000000000000000000000000000000000000000000000081526001600160a01b039091169063ea50d0e49061105a9088908590600401612295565b602060405180830381865afa158015611077573d6000803e3d6000fd5b505050506040513d601f19601f8201168201806040525081019061109b91906122ec565b6110d1576040517fff3ee09d00000000000000000000000000000000000000000000000000000000815260040160405180910390fd5b5050600082815260046020526040902080547fffffffffffffffffffffffffffffffffffffffffffffffffffffffffffffff001660019081179091556005829055610b93565b60055442146111685760405162461bcd60e51b815260206004820152601060248201527f494e56414c49445f54494d4553544550000000000000000000000000000000006044820152606401610754565b611170611449565b6111b1848484848080601f0160208091040260200160405190810160405280939291908181526020018383808284376000920191909152506114d892505050565b50505050565b6040517f70a082310000000000000000000000000000000000000000000000000000000081523060048201526000906001600160a01b037f000000000000000000000000000000000000000000000000000000000000000016906370a08231906024015b602060405180830381865afa158015611238573d6000803e3d6000fd5b505050506040513d601f19601f8201168201806040525081019061125c919061230e565b905090565b6003805461126e90612327565b80601f016020809104026020016040519081016040528092919081815260200182805461129a90612327565b80156112e75780601f106112bc576101008083540402835291602001916112e7565b820191906000526020600020905b8154815290600101906020018083116112ca57829003601f168201915b505050505081565b6040517f35567e1a000000000000000000000000000000000000000000000000000000008152306004820152600060248201819052906001600160a01b037f000000000000000000000000000000000000000000000000000000000000000016906335567e1a9060440161121b565b600680547fffffffffffffffffffffffff0000000000000000000000000000000000000000166001600160a01b0383811691821790925560405190917f000000000000000000000000000000000000000000000000000000000000000016907f526ffefac8167421b9048ae3377810715d834479565b0182ea4155f0efa4c38090600090a350565b60028054600185905561ffff841674010000000000000000000000000000000000000000027fffffffffffffffffffff000000000000000000000000000000000000000000009091166001600160a01b03871617179055600361083482826123ba565b336001600160a01b037f000000000000000000000000000000000000000000000000000000000000000016148061148a57506006546001600160a01b031633145b6114d65760405162461bcd60e51b815260206004820181905260248201527f6163636f756e743a206e6f74204f776e6572206f7220456e747279506f696e746044820152606401610754565b565b600080846001600160a01b031684846040516114f4919061247a565b60006040518083038185875af1925050503d8060008114611531576040519150601f19603f3d011682016040523d82523d6000602084013e611536565b606091505b50915091508161083457805160208201fd5b610b716117ba565b7f4910fdfa16fed3260ed0e7147f7cc6da11a60208b5b9406d12a635614ffd91435460ff1615611588576115838361181e565b505050565b826001600160a01b03166352d1902d6040518163ffffffff1660e01b8152600401602060405180830381865afa9250505080156115e2575060408051601f3d908101601f191682019092526115df9181019061230e565b60015b6116545760405162461bcd60e51b815260206004820152602e60248201527f45524331393637557067726164653a206e657720696d706c656d656e7461746960448201527f6f6e206973206e6f7420555550530000000000000000000000000000000000006064820152608401610754565b7f360894a13ba1a3210667c828492db98dca3e2076cc3735a920a3ca505d382bbc81146116e95760405162461bcd60e51b815260206004820152602960248201527f45524331393637557067726164653a20756e737570706f727465642070726f7860448201527f6961626c655555494400000000000000000000000000000000000000000000006064820152608401610754565b506115838383836118f4565b336001600160a01b037f000000000000000000000000000000000000000000000000000000000000000016146114d65760405162461bcd60e51b815260206004820152601c60248201527f6163636f756e743a206e6f742066726f6d20456e747279506f696e74000000006044820152606401610754565b8015610b7157604051600090339060001990849084818181858888f193505050503d8060008114610834576040519150601f19603f3d011682016040523d82523d6000602084013e610834565b6006546001600160a01b03163314806117d257503330145b6114d65760405162461bcd60e51b815260206004820152600a60248201527f6f6e6c79206f776e6572000000000000000000000000000000000000000000006044820152606401610754565b6001600160a01b0381163b61189b5760405162461bcd60e51b815260206004820152602d60248201527f455243313936373a206e657720696d706c656d656e746174696f6e206973206e60448201527f6f74206120636f6e7472616374000000000000000000000000000000000000006064820152608401610754565b7f360894a13ba1a3210667c828492db98dca3e2076cc3735a920a3ca505d382bbc80547fffffffffffffffffffffffff0000000000000000000000000000000000000000166001600160a01b0392909216919091179055565b6118fd83611919565b60008251118061190a5750805b15611583576111b18383611959565b6119228161181e565b6040516001600160a01b038216907fbc7cd75a20ee27fd9adebab32041f755214dbc6bffa90cc0225b39da2e5c2d3b90600090a250565b6060610b938383604051806060016040528060278152602001612497602791396060600080856001600160a01b031685604051611996919061247a565b600060405180830381855af49150503d80600081146119d1576040519150601f19603f3d011682016040523d82523d6000602084013e6119d6565b606091505b50915091506119e7868383876119f1565b9695505050505050565b60608315611a60578251600003611a59576001600160a01b0385163b611a595760405162461bcd60e51b815260206004820152601d60248201527f416464726573733a2063616c6c20746f206e6f6e2d636f6e74726163740000006044820152606401610754565b5081611a6a565b611a6a8383611a72565b949350505050565b815115611a825781518083602001fd5b8060405162461bcd60e51b81526004016107549190612131565b6001600160a01b0381168114610b7157600080fd5b60008083601f840112611ac357600080fd5b50813567ffffffffffffffff811115611adb57600080fd5b602083019150836020828501011115611af357600080fd5b9250929050565b60008060008060008060008060c0898b031215611b1657600080fd5b8835611b2181611a9c565b97506020890135611b3181611a9c565b96506040890135611b4181611a9c565b955060608901359450608089013567ffffffffffffffff80821115611b6557600080fd5b611b718c838d01611ab1565b909650945060a08b0135915080821115611b8a57600080fd5b50611b978b828c01611ab1565b999c989b5096995094979396929594505050565b600060208284031215611bbd57600080fd5b81357fffffffff0000000000000000000000000000000000000000000000000000000081168114610b9357600080fd5b7f4e487b7100000000000000000000000000000000000000000000000000000000600052604160045260246000fd5b600067ffffffffffffffff80841115611c3757611c37611bed565b604051601f8501601f19908116603f01168101908282118183101715611c5f57611c5f611bed565b81604052809350858152868686011115611c7857600080fd5b858560208301376000602087830101525050509392505050565b60008060008060808587031215611ca857600080fd5b8435611cb381611a9c565b935060208501359250604085013561ffff81168114611cd157600080fd5b9150606085013567ffffffffffffffff811115611ced57600080fd5b8501601f81018713611cfe57600080fd5b611d0d87823560208401611c1c565b91505092959194509250565b600080600080600060808688031215611d3157600080fd5b8535611d3c81611a9c565b94506020860135611d4c81611a9c565b935060408601359250606086013567ffffffffffffffff811115611d6f57600080fd5b611d7b88828901611ab1565b969995985093965092949392505050565b60008083601f840112611d9e57600080fd5b50813567ffffffffffffffff811115611db657600080fd5b6020830191508360208260051b8501011115611af357600080fd5b60008060008060408587031215611de757600080fd5b843567ffffffffffffffff80821115611dff57600080fd5b611e0b88838901611d8c565b90965094506020870135915080821115611e2457600080fd5b50611e3187828801611d8c565b95989497509550505050565b60006101608284031215611e5057600080fd5b50919050565b60008060408385031215611e6957600080fd5b823567ffffffffffffffff811115611e8057600080fd5b611e8c85828601611e3d565b95602094909401359450505050565b600060208284031215611ead57600080fd5b5035919050565b600060208284031215611ec657600080fd5b8135610b9381611a9c565b600080600060608486031215611ee657600080fd5b833567ffffffffffffffff811115611efd57600080fd5b611f0986828701611e3d565b9660208601359650604090950135949350505050565b60008060408385031215611f3257600080fd5b8235611f3d81611a9c565b946020939093013593505050565b600082601f830112611f5c57600080fd5b610b9383833560208501611c1c565b60008060408385031215611f7e57600080fd5b8235611f8981611a9c565b9150602083013567ffffffffffffffff811115611fa557600080fd5b611fb185828601611f4b565b9150509250929050565b600080600060608486031215611fd057600080fd5b833567ffffffffffffffff811115611fe757600080fd5b611f0986828701611f4b565b6000806000806060858703121561200957600080fd5b843561201481611a9c565b935060208501359250604085013567ffffffffffffffff81111561203757600080fd5b611e3187828801611ab1565b60008060008060008060008060a0898b03121561205f57600080fd5b883561206a81611a9c565b9750602089013561207a81611a9c565b9650604089013567ffffffffffffffff8082111561209757600080fd5b6120a38c838d01611d8c565b909850965060608b01359150808211156120bc57600080fd5b6120c88c838d01611d8c565b909650945060808b0135915080821115611b8a57600080fd5b60005b838110156120fc5781810151838201526020016120e4565b50506000910152565b6000815180845261211d8160208601602086016120e1565b601f01601f19169290920160200192915050565b602081526000610b936020830184612105565b60008060008060008060a0878903121561215d57600080fd5b863561216881611a9c565b9550602087013561217881611a9c565b94506040870135935060608701359250608087013567ffffffffffffffff8111156121a257600080fd5b6121ae89828a01611ab1565b979a9699509497509295939492505050565b7f4e487b7100000000000000000000000000000000000000000000000000000000600052603260045260246000fd5b60008083357fffffffffffffffffffffffffffffffffffffffffffffffffffffffffffffffe184360301811261222457600080fd5b83018035915067ffffffffffffffff82111561223f57600080fd5b602001915036819003821315611af357600080fd5b6000600019820361228e577f4e487b7100000000000000000000000000000000000000000000000000000000600052601160045260246000fd5b5060010190565b6040815260006122a86040830185612105565b82810360208481019190915284518083528582019282019060005b818110156122df578451835293830193918301916001016122c3565b5090979650505050505050565b6000602082840312156122fe57600080fd5b81518015158114610b9357600080fd5b60006020828403121561232057600080fd5b5051919050565b600181811c9082168061233b57607f821691505b602082108103611e50577f4e487b7100000000000000000000000000000000000000000000000000000000600052602260045260246000fd5b601f82111561158357600081815260208120601f850160051c8101602086101561239b5750805b601f850160051c820191505b81811015610cce578281556001016123a7565b815167ffffffffffffffff8111156123d4576123d4611bed565b6123e8816123e28454612327565b84612374565b602080601f83116001811461241d57600084156124055750858301515b600019600386901b1c1916600185901b178555610cce565b600085815260208120601f198616915b8281101561244c5788860151825594840194600190910190840161242d565b508582101561246a5787850151600019600388901b60f8161c191681555b5050505050600190811b01905550565b6000825161248c8184602087016120e1565b919091019291505056fe416464726573733a206c6f772d6c6576656c2064656c65676174652063616c6c206661696c6564a2646970667358221220a59625e800d648dafc2d58165bd8015df5fe040e585934701f0cd2521424e56664736f6c63430008140033",
    "linkReferences": {}
  },
  "methodIdentifiers": {
    "addDeposit()": "4a58db19",
    "currentTimestep()": "2a8c863c",
    "entryPoint()": "b0d691fe",
    "execute(address,uint256,bytes)": "b61d27f6",
    "executeBatch(address[],bytes[])": "18dfb3c7",
    "getDeposit()": "c399ec88",
    "getNonce()": "d087d288",
    "initialize(address,bytes32,uint16,string)": "04b62722",
    "ipfsHash()": "c623674f",
    "merkleRoot()": "2eb4a7ab",
    "nullifiers(bytes32)": "2997e86b",
    "onERC1155BatchReceived(address,address,uint256[],uint256[],bytes)": "bc197c81",
    "onERC1155Received(address,address,uint256,uint256,bytes)": "f23a6e61",
    "onERC721Received(address,address,uint256,bytes)": "150b7a02",
    "owner()": "8da5cb5b",
    "proxiableUUID()": "52d1902d",
    "step()": "e25fe175",
    "supportsInterface(bytes4)": "01ffc9a7",
    "tokensReceived(address,address,address,uint256,bytes,bytes)": "0023de29",
    "upgradeTo(address)": "3659cfe6",
    "upgradeToAndCall(address,bytes)": "4f1ef286",
    "validateSignature((address,uint256,bytes,bytes,uint256,uint256,uint256,uint256,uint256,bytes,bytes),bytes32)": "22f383ea",
    "validateUserOp((address,uint256,bytes,bytes,uint256,uint256,uint256,uint256,uint256,bytes,bytes),bytes32,uint256)": "3a871cdd",
    "verifier()": "2b7ac3f3",
    "verifyOTP(bytes,bytes32,uint256)": "6eaa112e",
    "withdrawDepositTo(address,uint256)": "4d44560d"
  },
  "id": 44
}