{
  "abi": [
    {
      "inputs": [
        {
          "internalType": "contract IEntryPoint",
          "name": "_entryPoint",
          "type": "address"
        },
        {
          "internalType": "address",
          "name": "_verifier",
          "type": "address"
        }
      ],
      "stateMutability": "nonpayable",
      "type": "constructor"
    },
    {
      "anonymous": false,
      "inputs": [
        {
          "indexed": true,
          "internalType": "address",
          "name": "previousOwner",
          "type": "address"
        },
        {
          "indexed": true,
          "internalType": "address",
          "name": "newOwner",
          "type": "address"
        }
      ],
      "name": "OwnershipTransferred",
      "type": "event"
    },
    {
      "inputs": [],
      "name": "accountImplementation",
      "outputs": [
        {
          "internalType": "contract Account",
          "name": "",
          "type": "address"
        }
      ],
      "stateMutability": "view",
      "type": "function"
    },
    {
      "inputs": [
        {
          "internalType": "bytes32",
          "name": "_merkleRoot",
          "type": "bytes32"
        },
        {
          "internalType": "uint16",
          "name": "_step",
          "type": "uint16"
        },
        {
          "internalType": "uint256",
          "name": "salt",
          "type": "uint256"
        }
      ],
      "name": "createAccount",
      "outputs": [
        {
          "internalType": "contract Account",
          "name": "ret",
          "type": "address"
        }
      ],
      "stateMutability": "nonpayable",
      "type": "function"
    },
    {
      "inputs": [
        {
          "internalType": "bytes32",
          "name": "_merkleRoot",
          "type": "bytes32"
        },
        {
          "internalType": "uint16",
          "name": "_step",
          "type": "uint16"
        },
        {
          "internalType": "uint256",
          "name": "salt",
          "type": "uint256"
        }
      ],
      "name": "getAddress",
      "outputs": [
        {
          "internalType": "address",
          "name": "",
          "type": "address"
        }
      ],
      "stateMutability": "view",
      "type": "function"
    },
    {
      "inputs": [],
      "name": "owner",
      "outputs": [
        {
          "internalType": "address",
          "name": "",
          "type": "address"
        }
      ],
      "stateMutability": "view",
      "type": "function"
    },
    {
      "inputs": [],
      "name": "renounceOwnership",
      "outputs": [],
      "stateMutability": "nonpayable",
      "type": "function"
    },
    {
      "inputs": [
        {
          "internalType": "address",
          "name": "_verifier",
          "type": "address"
        }
      ],
      "name": "setVerifier",
      "outputs": [],
      "stateMutability": "nonpayable",
      "type": "function"
    },
    {
      "inputs": [
        {
          "internalType": "address",
          "name": "newOwner",
          "type": "address"
        }
      ],
      "name": "transferOwnership",
      "outputs": [],
      "stateMutability": "nonpayable",
      "type": "function"
    },
    {
      "inputs": [],
      "name": "verifier",
      "outputs": [
        {
          "internalType": "address",
          "name": "",
          "type": "address"
        }
      ],
      "stateMutability": "view",
      "type": "function"
    }
  ],
  "bytecode": {
    "object": "0x60a060405234801561001057600080fd5b5060405161329738038061329783398101604081905261002f91610113565b6100383361009e565b81604051610045906100ee565b6001600160a01b039091168152602001604051809103906000f080158015610071573d6000803e3d6000fd5b506001600160a01b03908116608052600180546001600160a01b031916929091169190911790555061014d565b600080546001600160a01b038381166001600160a01b0319831681178455604051919092169283917f8be0079c531659141344cd1fd0a4f28419497f9722a3daafe3b4186f6b6457e09190a35050565b61247a80610e1d83390190565b6001600160a01b038116811461011057600080fd5b50565b6000806040838503121561012657600080fd5b8251610131816100fb565b6020840151909250610142816100fb565b809150509250929050565b608051610ca861017560003960008181609e0152818161020301526103270152610ca86000f3fe60806040523480156200001157600080fd5b5060043610620000935760003560e01c80635437988d11620000625780635437988d1462000138578063715018a614620001515780638da5cb5b146200015b578063f2fde38b146200017a57600080fd5b806311464fbe14620000985780631799669114620000e95780632add3e9114620001005780632b7ac3f31462000117575b600080fd5b620000c07f000000000000000000000000000000000000000000000000000000000000000081565b60405173ffffffffffffffffffffffffffffffffffffffff909116815260200160405180910390f35b620000c0620000fa36600462000660565b62000191565b620000c06200011136600462000660565b620002c5565b600154620000c09073ffffffffffffffffffffffffffffffffffffffff1681565b6200014f62000149366004620006a1565b620003f7565b005b6200014f62000448565b60005473ffffffffffffffffffffffffffffffffffffffff16620000c0565b6200014f6200018b366004620006a1565b62000460565b600080620001a1858585620002c5565b905073ffffffffffffffffffffffffffffffffffffffff81163b8015620001cb57509050620002be565b60015460405173ffffffffffffffffffffffffffffffffffffffff90911660248201526044810187905261ffff8616606482015284907f00000000000000000000000000000000000000000000000000000000000000009060840160408051601f198184030181529181526020820180517bffffffffffffffffffffffffffffffffffffffffffffffffffffffff167f46d1d35700000000000000000000000000000000000000000000000000000000179052516200028a9062000652565b62000297929190620006ff565b8190604051809103906000f5905080158015620002b8573d6000803e3d6000fd5b50925050505b9392505050565b6000620003ef8260001b60405180602001620002e19062000652565b601f1982820381018352601f90910116604081905260015473ffffffffffffffffffffffffffffffffffffffff1660248201526044810188905261ffff871660648201527f00000000000000000000000000000000000000000000000000000000000000009060840160408051601f19818403018152918152602080830180517bffffffffffffffffffffffffffffffffffffffffffffffffffffffff167f46d1d357000000000000000000000000000000000000000000000000000000001790529051620003b393929101620006ff565b60408051601f1981840301815290829052620003d3929160200162000751565b6040516020818303038152906040528051906020012062000521565b949350505050565b6200040162000530565b600180547fffffffffffffffffffffffff00000000000000000000000000000000000000001673ffffffffffffffffffffffffffffffffffffffff92909216919091179055565b6200045262000530565b6200045e6000620005b3565b565b6200046a62000530565b73ffffffffffffffffffffffffffffffffffffffff811662000513576040517f08c379a000000000000000000000000000000000000000000000000000000000815260206004820152602660248201527f4f776e61626c653a206e6577206f776e657220697320746865207a65726f206160448201527f646472657373000000000000000000000000000000000000000000000000000060648201526084015b60405180910390fd5b6200051e81620005b3565b50565b6000620002be83833062000628565b60005473ffffffffffffffffffffffffffffffffffffffff1633146200045e576040517f08c379a000000000000000000000000000000000000000000000000000000000815260206004820181905260248201527f4f776e61626c653a2063616c6c6572206973206e6f7420746865206f776e657260448201526064016200050a565b6000805473ffffffffffffffffffffffffffffffffffffffff8381167fffffffffffffffffffffffff0000000000000000000000000000000000000000831681178455604051919092169283917f8be0079c531659141344cd1fd0a4f28419497f9722a3daafe3b4186f6b6457e09190a35050565b6000604051836040820152846020820152828152600b8101905060ff815360559020949350505050565b6104ee806200078583390190565b6000806000606084860312156200067657600080fd5b83359250602084013561ffff811681146200069057600080fd5b929592945050506040919091013590565b600060208284031215620006b457600080fd5b813573ffffffffffffffffffffffffffffffffffffffff81168114620002be57600080fd5b60005b83811015620006f6578181015183820152602001620006dc565b50506000910152565b73ffffffffffffffffffffffffffffffffffffffff8316815260406020820152600082518060408401526200073c816060850160208701620006d9565b601f01601f1916919091016060019392505050565b6000835162000765818460208801620006d9565b8351908301906200077b818360208801620006d9565b0194935050505056fe60806040526040516104ee3803806104ee833981016040819052610022916102de565b61002e82826000610035565b50506103fb565b61003e83610061565b60008251118061004b5750805b1561005c5761005a83836100a1565b505b505050565b61006a816100cd565b6040516001600160a01b038216907fbc7cd75a20ee27fd9adebab32041f755214dbc6bffa90cc0225b39da2e5c2d3b90600090a250565b60606100c683836040518060600160405280602781526020016104c760279139610180565b9392505050565b6001600160a01b0381163b61013f5760405162461bcd60e51b815260206004820152602d60248201527f455243313936373a206e657720696d706c656d656e746174696f6e206973206e60448201526c1bdd08184818dbdb9d1c9858dd609a1b60648201526084015b60405180910390fd5b7f360894a13ba1a3210667c828492db98dca3e2076cc3735a920a3ca505d382bbc80546001600160a01b0319166001600160a01b0392909216919091179055565b6060600080856001600160a01b03168560405161019d91906103ac565b600060405180830381855af49150503d80600081146101d8576040519150601f19603f3d011682016040523d82523d6000602084013e6101dd565b606091505b5090925090506101ef868383876101f9565b9695505050505050565b60608315610268578251600003610261576001600160a01b0385163b6102615760405162461bcd60e51b815260206004820152601d60248201527f416464726573733a2063616c6c20746f206e6f6e2d636f6e74726163740000006044820152606401610136565b5081610272565b610272838361027a565b949350505050565b81511561028a5781518083602001fd5b8060405162461bcd60e51b815260040161013691906103c8565b634e487b7160e01b600052604160045260246000fd5b60005b838110156102d55781810151838201526020016102bd565b50506000910152565b600080604083850312156102f157600080fd5b82516001600160a01b038116811461030857600080fd5b60208401519092506001600160401b038082111561032557600080fd5b818501915085601f83011261033957600080fd5b81518181111561034b5761034b6102a4565b604051601f8201601f19908116603f01168101908382118183101715610373576103736102a4565b8160405282815288602084870101111561038c57600080fd5b61039d8360208301602088016102ba565b80955050505050509250929050565b600082516103be8184602087016102ba565b9190910192915050565b60208152600082518060208401526103e78160408501602087016102ba565b601f01601f19169190910160400192915050565b60be806104096000396000f3fe608060405236601057600e6013565b005b600e5b601f601b6021565b6065565b565b600060607f360894a13ba1a3210667c828492db98dca3e2076cc3735a920a3ca505d382bbc5473ffffffffffffffffffffffffffffffffffffffff1690565b905090565b3660008037600080366000845af43d6000803e8080156083573d6000f35b3d6000fdfea26469706673582212201878b8fbfe208e2ada463feba070d57ea266a04bcda691ca6a0028488987b68064736f6c63430008140033416464726573733a206c6f772d6c6576656c2064656c65676174652063616c6c206661696c6564a26469706673582212204b0b3ee2637c1ba4384cad69ffc1a275d8927bade2387b544a4177387173983264736f6c6343000814003360c0604052306080523480156200001557600080fd5b506040516200247a3803806200247a833981016040819052620000389162000118565b6001600160a01b03811660a0526200004f62000056565b506200014a565b600054610100900460ff1615620000c35760405162461bcd60e51b815260206004820152602760248201527f496e697469616c697a61626c653a20636f6e747261637420697320696e697469604482015266616c697a696e6760c81b606482015260840160405180910390fd5b60005460ff908116101562000116576000805460ff191660ff9081179091556040519081527f7f26b83ff96e1f2b6a682f133852f6798a09c465da95921460cefb38474024989060200160405180910390a15b565b6000602082840312156200012b57600080fd5b81516001600160a01b03811681146200014357600080fd5b9392505050565b60805160a0516122bd620001bd6000396000818161042c01528181610ba801528181610c42015281816111d201528181611283015281816112bd0152818161156901526116c60152600081816108010152818161089701528181610cec01528181610d820152610e7d01526122bd6000f3fe6080604052600436106101995760003560e01c80634d44560d116100e1578063b906e5641161008a578063c399ec8811610064578063c399ec8814610552578063d087d28814610567578063e25fe1751461057c578063f23a6e61146105c257600080fd5b8063b906e56414610470578063bc197c81146104ea578063c2193d361461053257600080fd5b80638da5cb5b116100bb5780638da5cb5b146103fd578063b0d691fe1461041d578063b61d27f61461045057600080fd5b80634d44560d146103b55780634f1ef286146103d557806352d1902d146103e857600080fd5b80632eb4a7ab116101435780633a871cdd1161011d5780633a871cdd1461036d57806346d1d3571461038d5780634a58db19146103ad57600080fd5b80632eb4a7ab146102ff5780633659cfe614610323578063395852ea1461034357600080fd5b806318dfb3c71161017457806318dfb3c7146102775780632997e86b146102975780632b7ac3f3146102c757600080fd5b806223de29146101a557806301ffc9a7146101cc578063150b7a021461020157600080fd5b366101a057005b600080fd5b3480156101b157600080fd5b506101ca6101c0366004611a50565b5050505050505050565b005b3480156101d857600080fd5b506101ec6101e7366004611b01565b610608565b60405190151581526020015b60405180910390f35b34801561020d57600080fd5b5061024661021c366004611b43565b7f150b7a020000000000000000000000000000000000000000000000000000000095945050505050565b6040517fffffffff0000000000000000000000000000000000000000000000000000000090911681526020016101f8565b34801561028357600080fd5b506101ca610292366004611bfb565b6106ed565b3480156102a357600080fd5b506101ec6102b2366004611c67565b60036020526000908152604090205460ff1681565b3480156102d357600080fd5b506002546102e7906001600160a01b031681565b6040516001600160a01b0390911681526020016101f8565b34801561030b57600080fd5b5061031560015481565b6040519081526020016101f8565b34801561032f57600080fd5b506101ca61033e366004611c80565b6107f7565b34801561034f57600080fd5b50610358610994565b604080519283526020830191909152016101f8565b34801561037957600080fd5b50610315610388366004611c9d565b6109ac565b34801561039957600080fd5b506101ca6103a8366004611cf1565b6109d2565b6101ca610ba6565b3480156103c157600080fd5b506101ca6103d0366004611d3a565b610c38565b6101ca6103e3366004611e22565b610ce2565b3480156103f457600080fd5b50610315610e70565b34801561040957600080fd5b506004546102e7906001600160a01b031681565b34801561042957600080fd5b507f00000000000000000000000000000000000000000000000000000000000000006102e7565b34801561045c57600080fd5b506101ca61046b366004611e72565b610f35565b34801561047c57600080fd5b506101ca61048b366004611cf1565b6002805460019390935561ffff90911674010000000000000000000000000000000000000000027fffffffffffffffffffff000000000000000000000000000000000000000000009092166001600160a01b0390931692909217179055565b3480156104f657600080fd5b50610246610505366004611ec2565b7fbc197c810000000000000000000000000000000000000000000000000000000098975050505050505050565b34801561053e57600080fd5b506101ec61054d366004611f60565b610f7e565b34801561055e57600080fd5b50610315611199565b34801561057357600080fd5b50610315611243565b34801561058857600080fd5b506002546105af9074010000000000000000000000000000000000000000900461ffff1681565b60405161ffff90911681526020016101f8565b3480156105ce57600080fd5b506102466105dd366004611fa5565b7ff23a6e61000000000000000000000000000000000000000000000000000000009695505050505050565b60007fffffffff0000000000000000000000000000000000000000000000000000000082167f150b7a0200000000000000000000000000000000000000000000000000000000148061069b57507fffffffff0000000000000000000000000000000000000000000000000000000082167f4e2312e000000000000000000000000000000000000000000000000000000000145b806106e757507fffffffff0000000000000000000000000000000000000000000000000000000082167f01ffc9a700000000000000000000000000000000000000000000000000000000145b92915050565b6106f56112b2565b8281146107495760405162461bcd60e51b815260206004820152601360248201527f77726f6e67206172726179206c656e677468730000000000000000000000000060448201526064015b60405180910390fd5b60005b838110156107f0576107de85858381811061076957610769612021565b905060200201602081019061077e9190611c80565b600085858581811061079257610792612021565b90506020028101906107a49190612050565b8080601f01602080910402602001604051908101604052809392919081815260200183838082843760009201919091525061134192505050565b806107e8816120b5565b91505061074c565b5050505050565b6001600160a01b037f00000000000000000000000000000000000000000000000000000000000000001630036108955760405162461bcd60e51b815260206004820152602c60248201527f46756e6374696f6e206d7573742062652063616c6c6564207468726f7567682060448201527f64656c656761746563616c6c00000000000000000000000000000000000000006064820152608401610740565b7f00000000000000000000000000000000000000000000000000000000000000006001600160a01b03166108f07f360894a13ba1a3210667c828492db98dca3e2076cc3735a920a3ca505d382bbc546001600160a01b031690565b6001600160a01b03161461096c5760405162461bcd60e51b815260206004820152602c60248201527f46756e6374696f6e206d7573742062652063616c6c6564207468726f7567682060448201527f6163746976652070726f787900000000000000000000000000000000000000006064820152608401610740565b610975816113b1565b60408051600080825260208201909252610991918391906113b9565b50565b600080806109a360b442612114565b93849350915050565b60006109b661155e565b6109c084846115d6565b90506109cb8261161d565b9392505050565b600054610100900460ff16158080156109f25750600054600160ff909116105b80610a0c5750303b158015610a0c575060005460ff166001145b610a7e5760405162461bcd60e51b815260206004820152602e60248201527f496e697469616c697a61626c653a20636f6e747261637420697320616c72656160448201527f647920696e697469616c697a65640000000000000000000000000000000000006064820152608401610740565b600080547fffffffffffffffffffffffffffffffffffffffffffffffffffffffffffffff001660011790558015610adc57600080547fffffffffffffffffffffffffffffffffffffffffffffffffffffffffffff00ff166101001790555b610ae66000611688565b6002805460018590556001600160a01b0386167fffffffffffffffffffff00000000000000000000000000000000000000000000909116177401000000000000000000000000000000000000000061ffff8516021790558015610ba057600080547fffffffffffffffffffffffffffffffffffffffffffffffffffffffffffff00ff169055604051600181527f7f26b83ff96e1f2b6a682f133852f6798a09c465da95921460cefb38474024989060200160405180910390a15b50505050565b7f00000000000000000000000000000000000000000000000000000000000000006040517fb760faf90000000000000000000000000000000000000000000000000000000081523060048201526001600160a01b03919091169063b760faf99034906024016000604051808303818588803b158015610c2457600080fd5b505af11580156107f0573d6000803e3d6000fd5b610c40611710565b7f00000000000000000000000000000000000000000000000000000000000000006040517f205c28780000000000000000000000000000000000000000000000000000000081526001600160a01b03848116600483015260248201849052919091169063205c287890604401600060405180830381600087803b158015610cc657600080fd5b505af1158015610cda573d6000803e3d6000fd5b505050505050565b6001600160a01b037f0000000000000000000000000000000000000000000000000000000000000000163003610d805760405162461bcd60e51b815260206004820152602c60248201527f46756e6374696f6e206d7573742062652063616c6c6564207468726f7567682060448201527f64656c656761746563616c6c00000000000000000000000000000000000000006064820152608401610740565b7f00000000000000000000000000000000000000000000000000000000000000006001600160a01b0316610ddb7f360894a13ba1a3210667c828492db98dca3e2076cc3735a920a3ca505d382bbc546001600160a01b031690565b6001600160a01b031614610e575760405162461bcd60e51b815260206004820152602c60248201527f46756e6374696f6e206d7573742062652063616c6c6564207468726f7567682060448201527f6163746976652070726f787900000000000000000000000000000000000000006064820152608401610740565b610e60826113b1565b610e6c828260016113b9565b5050565b6000306001600160a01b037f00000000000000000000000000000000000000000000000000000000000000001614610f105760405162461bcd60e51b815260206004820152603860248201527f555550535570677261646561626c653a206d757374206e6f742062652063616c60448201527f6c6564207468726f7567682064656c656761746563616c6c00000000000000006064820152608401610740565b507f360894a13ba1a3210667c828492db98dca3e2076cc3735a920a3ca505d382bbc90565b610f3d6112b2565b610ba0848484848080601f01602080910402602001604051908101604052809392919081815260200183838082843760009201919091525061134192505050565b60008181526003602052604081205460ff1615610fdd5760405162461bcd60e51b815260206004820152601460248201527f4455504c4943415445445f4e554c4c49464945520000000000000000000000006044820152606401610740565b6002546000906110099074010000000000000000000000000000000000000000900461ffff1642612114565b6040805160038082526080820190925291925060009190602082016060803683370190505090506001548160008151811061104657611046612021565b602002602001018181525050838160018151811061106657611066612021565b6020026020010181815250508160001b8160028151811061108957611089612021565b60209081029190910101526002546040517fea50d0e40000000000000000000000000000000000000000000000000000000081526001600160a01b039091169063ea50d0e4906110df908890859060040161219f565b602060405180830381865afa1580156110fc573d6000803e3d6000fd5b505050506040513d601f19601f8201168201806040525081019061112091906121f6565b611156576040517fff3ee09d00000000000000000000000000000000000000000000000000000000815260040160405180910390fd5b505050600081815260036020526040902080547fffffffffffffffffffffffffffffffffffffffffffffffffffffffffffffff0016600190811790915592915050565b6040517f70a082310000000000000000000000000000000000000000000000000000000081523060048201526000906001600160a01b037f000000000000000000000000000000000000000000000000000000000000000016906370a08231906024015b602060405180830381865afa15801561121a573d6000803e3d6000fd5b505050506040513d601f19601f8201168201806040525081019061123e9190612218565b905090565b6040517f35567e1a000000000000000000000000000000000000000000000000000000008152306004820152600060248201819052906001600160a01b037f000000000000000000000000000000000000000000000000000000000000000016906335567e1a906044016111fd565b336001600160a01b037f00000000000000000000000000000000000000000000000000000000000000001614806112f357506004546001600160a01b031633145b61133f5760405162461bcd60e51b815260206004820181905260248201527f6163636f756e743a206e6f74204f776e6572206f7220456e747279506f696e746044820152606401610740565b565b600080846001600160a01b0316848460405161135d9190612231565b60006040518083038185875af1925050503d806000811461139a576040519150601f19603f3d011682016040523d82523d6000602084013e61139f565b606091505b5091509150816107f057805160208201fd5b610991611710565b7f4910fdfa16fed3260ed0e7147f7cc6da11a60208b5b9406d12a635614ffd91435460ff16156113f1576113ec83611774565b505050565b826001600160a01b03166352d1902d6040518163ffffffff1660e01b8152600401602060405180830381865afa92505050801561144b575060408051601f3d908101601f1916820190925261144891810190612218565b60015b6114bd5760405162461bcd60e51b815260206004820152602e60248201527f45524331393637557067726164653a206e657720696d706c656d656e7461746960448201527f6f6e206973206e6f7420555550530000000000000000000000000000000000006064820152608401610740565b7f360894a13ba1a3210667c828492db98dca3e2076cc3735a920a3ca505d382bbc81146115525760405162461bcd60e51b815260206004820152602960248201527f45524331393637557067726164653a20756e737570706f727465642070726f7860448201527f6961626c655555494400000000000000000000000000000000000000000000006064820152608401610740565b506113ec83838361184a565b336001600160a01b037f0000000000000000000000000000000000000000000000000000000000000000161461133f5760405162461bcd60e51b815260206004820152601c60248201527f6163636f756e743a206e6f742066726f6d20456e747279506f696e74000000006044820152606401610740565b600080806115e8610140860186612050565b8101906115f59190611f60565b915091506116038282610f7e565b611612576001925050506106e7565b506000949350505050565b80156109915760405160009033907fffffffffffffffffffffffffffffffffffffffffffffffffffffffffffffffff90849084818181858888f193505050503d80600081146107f0576040519150601f19603f3d011682016040523d82523d6000602084013e6107f0565b600480547fffffffffffffffffffffffff0000000000000000000000000000000000000000166001600160a01b0383811691821790925560405190917f000000000000000000000000000000000000000000000000000000000000000016907f526ffefac8167421b9048ae3377810715d834479565b0182ea4155f0efa4c38090600090a350565b6004546001600160a01b031633148061172857503330145b61133f5760405162461bcd60e51b815260206004820152600a60248201527f6f6e6c79206f776e6572000000000000000000000000000000000000000000006044820152606401610740565b6001600160a01b0381163b6117f15760405162461bcd60e51b815260206004820152602d60248201527f455243313936373a206e657720696d706c656d656e746174696f6e206973206e60448201527f6f74206120636f6e7472616374000000000000000000000000000000000000006064820152608401610740565b7f360894a13ba1a3210667c828492db98dca3e2076cc3735a920a3ca505d382bbc80547fffffffffffffffffffffffff0000000000000000000000000000000000000000166001600160a01b0392909216919091179055565b6118538361186f565b6000825111806118605750805b156113ec57610ba083836118af565b61187881611774565b6040516001600160a01b038216907fbc7cd75a20ee27fd9adebab32041f755214dbc6bffa90cc0225b39da2e5c2d3b90600090a250565b60606109cb8383604051806060016040528060278152602001612261602791396060600080856001600160a01b0316856040516118ec9190612231565b600060405180830381855af49150503d8060008114611927576040519150601f19603f3d011682016040523d82523d6000602084013e61192c565b606091505b509150915061193d86838387611947565b9695505050505050565b606083156119b65782516000036119af576001600160a01b0385163b6119af5760405162461bcd60e51b815260206004820152601d60248201527f416464726573733a2063616c6c20746f206e6f6e2d636f6e74726163740000006044820152606401610740565b50816119c0565b6119c083836119c8565b949350505050565b8151156119d85781518083602001fd5b8060405162461bcd60e51b8152600401610740919061224d565b6001600160a01b038116811461099157600080fd5b60008083601f840112611a1957600080fd5b50813567ffffffffffffffff811115611a3157600080fd5b602083019150836020828501011115611a4957600080fd5b9250929050565b60008060008060008060008060c0898b031215611a6c57600080fd5b8835611a77816119f2565b97506020890135611a87816119f2565b96506040890135611a97816119f2565b955060608901359450608089013567ffffffffffffffff80821115611abb57600080fd5b611ac78c838d01611a07565b909650945060a08b0135915080821115611ae057600080fd5b50611aed8b828c01611a07565b999c989b5096995094979396929594505050565b600060208284031215611b1357600080fd5b81357fffffffff00000000000000000000000000000000000000000000000000000000811681146109cb57600080fd5b600080600080600060808688031215611b5b57600080fd5b8535611b66816119f2565b94506020860135611b76816119f2565b935060408601359250606086013567ffffffffffffffff811115611b9957600080fd5b611ba588828901611a07565b969995985093965092949392505050565b60008083601f840112611bc857600080fd5b50813567ffffffffffffffff811115611be057600080fd5b6020830191508360208260051b8501011115611a4957600080fd5b60008060008060408587031215611c1157600080fd5b843567ffffffffffffffff80821115611c2957600080fd5b611c3588838901611bb6565b90965094506020870135915080821115611c4e57600080fd5b50611c5b87828801611bb6565b95989497509550505050565b600060208284031215611c7957600080fd5b5035919050565b600060208284031215611c9257600080fd5b81356109cb816119f2565b600080600060608486031215611cb257600080fd5b833567ffffffffffffffff811115611cc957600080fd5b84016101608187031215611cdc57600080fd5b95602085013595506040909401359392505050565b600080600060608486031215611d0657600080fd5b8335611d11816119f2565b925060208401359150604084013561ffff81168114611d2f57600080fd5b809150509250925092565b60008060408385031215611d4d57600080fd5b8235611d58816119f2565b946020939093013593505050565b7f4e487b7100000000000000000000000000000000000000000000000000000000600052604160045260246000fd5b600082601f830112611da657600080fd5b813567ffffffffffffffff80821115611dc157611dc1611d66565b604051601f8301601f19908116603f01168101908282118183101715611de957611de9611d66565b81604052838152866020858801011115611e0257600080fd5b836020870160208301376000602085830101528094505050505092915050565b60008060408385031215611e3557600080fd5b8235611e40816119f2565b9150602083013567ffffffffffffffff811115611e5c57600080fd5b611e6885828601611d95565b9150509250929050565b60008060008060608587031215611e8857600080fd5b8435611e93816119f2565b935060208501359250604085013567ffffffffffffffff811115611eb657600080fd5b611c5b87828801611a07565b60008060008060008060008060a0898b031215611ede57600080fd5b8835611ee9816119f2565b97506020890135611ef9816119f2565b9650604089013567ffffffffffffffff80821115611f1657600080fd5b611f228c838d01611bb6565b909850965060608b0135915080821115611f3b57600080fd5b611f478c838d01611bb6565b909650945060808b0135915080821115611ae057600080fd5b60008060408385031215611f7357600080fd5b823567ffffffffffffffff811115611f8a57600080fd5b611f9685828601611d95565b95602094909401359450505050565b60008060008060008060a08789031215611fbe57600080fd5b8635611fc9816119f2565b95506020870135611fd9816119f2565b94506040870135935060608701359250608087013567ffffffffffffffff81111561200357600080fd5b61200f89828a01611a07565b979a9699509497509295939492505050565b7f4e487b7100000000000000000000000000000000000000000000000000000000600052603260045260246000fd5b60008083357fffffffffffffffffffffffffffffffffffffffffffffffffffffffffffffffe184360301811261208557600080fd5b83018035915067ffffffffffffffff8211156120a057600080fd5b602001915036819003821315611a4957600080fd5b60007fffffffffffffffffffffffffffffffffffffffffffffffffffffffffffffffff820361210d577f4e487b7100000000000000000000000000000000000000000000000000000000600052601160045260246000fd5b5060010190565b60008261214a577f4e487b7100000000000000000000000000000000000000000000000000000000600052601260045260246000fd5b500490565b60005b8381101561216a578181015183820152602001612152565b50506000910152565b6000815180845261218b81602086016020860161214f565b601f01601f19169290920160200192915050565b6040815260006121b26040830185612173565b82810360208481019190915284518083528582019282019060005b818110156121e9578451835293830193918301916001016121cd565b5090979650505050505050565b60006020828403121561220857600080fd5b815180151581146109cb57600080fd5b60006020828403121561222a57600080fd5b5051919050565b6000825161224381846020870161214f565b9190910192915050565b6020815260006109cb602083018461217356fe416464726573733a206c6f772d6c6576656c2064656c65676174652063616c6c206661696c6564a26469706673582212203330b70d68895128f2fbc4b9612647402f853615bb6270efc9248836ad162ff164736f6c63430008140033",
    "linkReferences": {}
  },
  "methodIdentifiers": {
    "accountImplementation()": "11464fbe",
    "createAccount(bytes32,uint16,uint256)": "17996691",
    "getAddress(bytes32,uint16,uint256)": "2add3e91",
    "owner()": "8da5cb5b",
    "renounceOwnership()": "715018a6",
    "setVerifier(address)": "5437988d",
    "transferOwnership(address)": "f2fde38b",
    "verifier()": "2b7ac3f3"
  },
  "id": 45
}