{
  "abi": [
    {
      "inputs": [
        {
          "internalType": "contract IEntryPoint",
          "name": "_entryPoint",
          "type": "address"
        },
        {
          "internalType": "address",
          "name": "_verifier",
          "type": "address"
        }
      ],
      "stateMutability": "nonpayable",
      "type": "constructor"
    },
    {
      "anonymous": false,
      "inputs": [
        {
          "indexed": true,
          "internalType": "address",
          "name": "previousOwner",
          "type": "address"
        },
        {
          "indexed": true,
          "internalType": "address",
          "name": "newOwner",
          "type": "address"
        }
      ],
      "name": "OwnershipTransferred",
      "type": "event"
    },
    {
      "inputs": [],
      "name": "accountImplementation",
      "outputs": [
        {
          "internalType": "contract Account",
          "name": "",
          "type": "address"
        }
      ],
      "stateMutability": "view",
      "type": "function"
    },
    {
      "inputs": [
        {
          "internalType": "bytes32",
          "name": "_merkleRoot",
          "type": "bytes32"
        },
        {
          "internalType": "uint16",
          "name": "_step",
          "type": "uint16"
        },
        {
          "internalType": "string",
          "name": "_ipfsHash",
          "type": "string"
        },
        {
          "internalType": "uint256",
          "name": "salt",
          "type": "uint256"
        }
      ],
      "name": "createAccount",
      "outputs": [
        {
          "internalType": "contract Account",
          "name": "ret",
          "type": "address"
        }
      ],
      "stateMutability": "nonpayable",
      "type": "function"
    },
    {
      "inputs": [
        {
          "internalType": "bytes32",
          "name": "_merkleRoot",
          "type": "bytes32"
        },
        {
          "internalType": "uint16",
          "name": "_step",
          "type": "uint16"
        },
        {
          "internalType": "string",
          "name": "_ipfsHash",
          "type": "string"
        },
        {
          "internalType": "uint256",
          "name": "salt",
          "type": "uint256"
        }
      ],
      "name": "getAccountAddress",
      "outputs": [
        {
          "internalType": "address",
          "name": "",
          "type": "address"
        }
      ],
      "stateMutability": "view",
      "type": "function"
    },
    {
      "inputs": [],
      "name": "owner",
      "outputs": [
        {
          "internalType": "address",
          "name": "",
          "type": "address"
        }
      ],
      "stateMutability": "view",
      "type": "function"
    },
    {
      "inputs": [],
      "name": "renounceOwnership",
      "outputs": [],
      "stateMutability": "nonpayable",
      "type": "function"
    },
    {
      "inputs": [
        {
          "internalType": "address",
          "name": "_verifier",
          "type": "address"
        }
      ],
      "name": "setVerifier",
      "outputs": [],
      "stateMutability": "nonpayable",
      "type": "function"
    },
    {
      "inputs": [
        {
          "internalType": "address",
          "name": "newOwner",
          "type": "address"
        }
      ],
      "name": "transferOwnership",
      "outputs": [],
      "stateMutability": "nonpayable",
      "type": "function"
    },
    {
      "inputs": [],
      "name": "verifier",
      "outputs": [
        {
          "internalType": "address",
          "name": "",
          "type": "address"
        }
      ],
      "stateMutability": "view",
      "type": "function"
    }
  ],
  "bytecode": {
    "object": "0x60a060405234801561001057600080fd5b506040516134fd3803806134fd83398101604081905261002f91610113565b6100383361009e565b81604051610045906100ee565b6001600160a01b039091168152602001604051809103906000f080158015610071573d6000803e3d6000fd5b506001600160a01b03908116608052600180546001600160a01b031916929091169190911790555061014d565b600080546001600160a01b038381166001600160a01b0319831681178455604051919092169283917f8be0079c531659141344cd1fd0a4f28419497f9722a3daafe3b4186f6b6457e09190a35050565b6125b380610f4a83390190565b6001600160a01b038116811461011057600080fd5b50565b6000806040838503121561012657600080fd5b8251610131816100fb565b6020840151909250610142816100fb565b809150509250929050565b608051610dd561017560003960008181609e015281816101d601526102f70152610dd56000f3fe60806040523480156200001157600080fd5b5060043610620000935760003560e01c80635437988d11620000625780635437988d1462000138578063715018a614620001515780638da5cb5b146200015b578063f2fde38b146200017a57600080fd5b806311464fbe14620000985780632b7ac3f314620000e957806339090439146200010a5780634d5436061462000121575b600080fd5b620000c07f000000000000000000000000000000000000000000000000000000000000000081565b60405173ffffffffffffffffffffffffffffffffffffffff909116815260200160405180910390f35b600154620000c09073ffffffffffffffffffffffffffffffffffffffff1681565b620000c06200011b3660046200068f565b62000191565b620000c0620001323660046200068f565b620002c1565b6200014f6200014936600462000776565b620003f0565b005b6200014f62000441565b60005473ffffffffffffffffffffffffffffffffffffffff16620000c0565b6200014f6200018b36600462000776565b62000459565b600080620001a286868686620002c1565b905073ffffffffffffffffffffffffffffffffffffffff81163b8015620001cc57509050620002b9565b60015460405185917f000000000000000000000000000000000000000000000000000000000000000091620002219173ffffffffffffffffffffffffffffffffffffffff16908b908b908b9060240162000802565b60408051601f198184030181529181526020820180517bffffffffffffffffffffffffffffffffffffffffffffffffffffffff167f04b627220000000000000000000000000000000000000000000000000000000017905251620002859062000652565b620002929291906200084d565b8190604051809103906000f5905080158015620002b3573d6000803e3d6000fd5b50925050505b949350505050565b6000620003e78260001b60405180602001620002dd9062000652565b601f1982820381018352601f9091011660408190526001547f000000000000000000000000000000000000000000000000000000000000000091620003429173ffffffffffffffffffffffffffffffffffffffff16908b908b908b9060240162000802565b60408051601f19818403018152918152602080830180517bffffffffffffffffffffffffffffffffffffffffffffffffffffffff167f04b62722000000000000000000000000000000000000000000000000000000001790529051620003ab939291016200084d565b60408051601f1981840301815290829052620003cb92916020016200087e565b604051602081830303815290604052805190602001206200051a565b95945050505050565b620003fa62000530565b600180547fffffffffffffffffffffffff00000000000000000000000000000000000000001673ffffffffffffffffffffffffffffffffffffffff92909216919091179055565b6200044b62000530565b620004576000620005b3565b565b6200046362000530565b73ffffffffffffffffffffffffffffffffffffffff81166200050c576040517f08c379a000000000000000000000000000000000000000000000000000000000815260206004820152602660248201527f4f776e61626c653a206e6577206f776e657220697320746865207a65726f206160448201527f646472657373000000000000000000000000000000000000000000000000000060648201526084015b60405180910390fd5b6200051781620005b3565b50565b60006200052983833062000628565b9392505050565b60005473ffffffffffffffffffffffffffffffffffffffff16331462000457576040517f08c379a000000000000000000000000000000000000000000000000000000000815260206004820181905260248201527f4f776e61626c653a2063616c6c6572206973206e6f7420746865206f776e6572604482015260640162000503565b6000805473ffffffffffffffffffffffffffffffffffffffff8381167fffffffffffffffffffffffff0000000000000000000000000000000000000000831681178455604051919092169283917f8be0079c531659141344cd1fd0a4f28419497f9722a3daafe3b4186f6b6457e09190a35050565b6000604051836040820152846020820152828152600b8101905060ff815360559020949350505050565b6104ee80620008b283390190565b7f4e487b7100000000000000000000000000000000000000000000000000000000600052604160045260246000fd5b60008060008060808587031215620006a657600080fd5b84359350602085013561ffff81168114620006c057600080fd5b9250604085013567ffffffffffffffff80821115620006de57600080fd5b818701915087601f830112620006f357600080fd5b81358181111562000708576200070862000660565b604051601f8201601f19908116603f0116810190838211818310171562000733576200073362000660565b816040528281528a60208487010111156200074d57600080fd5b826020860160208301376000928101602001929092525095989497509495606001359450505050565b6000602082840312156200078957600080fd5b813573ffffffffffffffffffffffffffffffffffffffff811681146200052957600080fd5b60005b83811015620007cb578181015183820152602001620007b1565b50506000910152565b60008151808452620007ee816020860160208601620007ae565b601f01601f19169290920160200192915050565b73ffffffffffffffffffffffffffffffffffffffff8516815283602082015261ffff83166040820152608060608201526000620008436080830184620007d4565b9695505050505050565b73ffffffffffffffffffffffffffffffffffffffff83168152604060208201526000620002b96040830184620007d4565b6000835162000892818460208801620007ae565b835190830190620008a8818360208801620007ae565b0194935050505056fe60806040526040516104ee3803806104ee833981016040819052610022916102de565b61002e82826000610035565b50506103fb565b61003e83610061565b60008251118061004b5750805b1561005c5761005a83836100a1565b505b505050565b61006a816100cd565b6040516001600160a01b038216907fbc7cd75a20ee27fd9adebab32041f755214dbc6bffa90cc0225b39da2e5c2d3b90600090a250565b60606100c683836040518060600160405280602781526020016104c760279139610180565b9392505050565b6001600160a01b0381163b61013f5760405162461bcd60e51b815260206004820152602d60248201527f455243313936373a206e657720696d706c656d656e746174696f6e206973206e60448201526c1bdd08184818dbdb9d1c9858dd609a1b60648201526084015b60405180910390fd5b7f360894a13ba1a3210667c828492db98dca3e2076cc3735a920a3ca505d382bbc80546001600160a01b0319166001600160a01b0392909216919091179055565b6060600080856001600160a01b03168560405161019d91906103ac565b600060405180830381855af49150503d80600081146101d8576040519150601f19603f3d011682016040523d82523d6000602084013e6101dd565b606091505b5090925090506101ef868383876101f9565b9695505050505050565b60608315610268578251600003610261576001600160a01b0385163b6102615760405162461bcd60e51b815260206004820152601d60248201527f416464726573733a2063616c6c20746f206e6f6e2d636f6e74726163740000006044820152606401610136565b5081610272565b610272838361027a565b949350505050565b81511561028a5781518083602001fd5b8060405162461bcd60e51b815260040161013691906103c8565b634e487b7160e01b600052604160045260246000fd5b60005b838110156102d55781810151838201526020016102bd565b50506000910152565b600080604083850312156102f157600080fd5b82516001600160a01b038116811461030857600080fd5b60208401519092506001600160401b038082111561032557600080fd5b818501915085601f83011261033957600080fd5b81518181111561034b5761034b6102a4565b604051601f8201601f19908116603f01168101908382118183101715610373576103736102a4565b8160405282815288602084870101111561038c57600080fd5b61039d8360208301602088016102ba565b80955050505050509250929050565b600082516103be8184602087016102ba565b9190910192915050565b60208152600082518060208401526103e78160408501602087016102ba565b601f01601f19169190910160400192915050565b60be806104096000396000f3fe608060405236601057600e6013565b005b600e5b601f601b6021565b6065565b565b600060607f360894a13ba1a3210667c828492db98dca3e2076cc3735a920a3ca505d382bbc5473ffffffffffffffffffffffffffffffffffffffff1690565b905090565b3660008037600080366000845af43d6000803e8080156083573d6000f35b3d6000fdfea26469706673582212201878b8fbfe208e2ada463feba070d57ea266a04bcda691ca6a0028488987b68064736f6c63430008140033416464726573733a206c6f772d6c6576656c2064656c65676174652063616c6c206661696c6564a2646970667358221220294fcaeabbea10d5efb1503f7265279787025132ea7f1e09a357672c7a9daa3664736f6c6343000814003360c0604052306080523480156200001557600080fd5b50604051620025b3380380620025b3833981016040819052620000389162000118565b6001600160a01b03811660a0526200004f62000056565b506200014a565b600054610100900460ff1615620000c35760405162461bcd60e51b815260206004820152602760248201527f496e697469616c697a61626c653a20636f6e747261637420697320696e697469604482015266616c697a696e6760c81b606482015260840160405180910390fd5b60005460ff908116101562000116576000805460ff191660ff9081179091556040519081527f7f26b83ff96e1f2b6a682f133852f6798a09c465da95921460cefb38474024989060200160405180910390a15b565b6000602082840312156200012b57600080fd5b81516001600160a01b03811681146200014357600080fd5b9392505050565b60805160a0516123f6620001bd600039600081816103ec01528181610a8701528181610b2101528181610e9c01528181610fdb015281816110480152818161110001526113ac0152600081816108cc0152818161096201528181610bcb01528181610c610152610d5c01526123f66000f3fe6080604052600436106101835760003560e01c80634d44560d116100d6578063bc197c811161007f578063d087d28811610059578063d087d288146104af578063e25fe175146104c4578063f23a6e611461050a57600080fd5b8063bc197c8114610430578063c399ec8814610478578063c623674f1461048d57600080fd5b80638da5cb5b116100b05780638da5cb5b146103bd578063b0d691fe146103dd578063b61d27f61461041057600080fd5b80634d44560d146103755780634f1ef2861461039557806352d1902d146103a857600080fd5b80632997e86b116101385780633659cfe6116101125780633659cfe61461032d5780633a871cdd1461034d5780634a58db191461036d57600080fd5b80632997e86b146102a15780632b7ac3f3146102d15780632eb4a7ab1461030957600080fd5b806304b627221161016957806304b62722146101eb578063150b7a021461020b57806318dfb3c71461028157600080fd5b806223de291461018f57806301ffc9a7146101b657600080fd5b3661018a57005b600080fd5b34801561019b57600080fd5b506101b46101aa366004611a07565b5050505050505050565b005b3480156101c257600080fd5b506101d66101d1366004611ab8565b610550565b60405190151581526020015b60405180910390f35b3480156101f757600080fd5b506101b4610206366004611b9f565b610635565b34801561021757600080fd5b50610250610226366004611c26565b7f150b7a020000000000000000000000000000000000000000000000000000000095945050505050565b6040517fffffffff0000000000000000000000000000000000000000000000000000000090911681526020016101e2565b34801561028d57600080fd5b506101b461029c366004611cde565b6107c4565b3480156102ad57600080fd5b506101d66102bc366004611d4a565b60046020526000908152604090205460ff1681565b3480156102dd57600080fd5b506002546102f1906001600160a01b031681565b6040516001600160a01b0390911681526020016101e2565b34801561031557600080fd5b5061031f60015481565b6040519081526020016101e2565b34801561033957600080fd5b506101b4610348366004611d63565b6108c2565b34801561035957600080fd5b5061031f610368366004611d80565b610a5f565b6101b4610a85565b34801561038157600080fd5b506101b4610390366004611dd4565b610b17565b6101b46103a3366004611e20565b610bc1565b3480156103b457600080fd5b5061031f610d4f565b3480156103c957600080fd5b506005546102f1906001600160a01b031681565b3480156103e957600080fd5b507f00000000000000000000000000000000000000000000000000000000000000006102f1565b34801561041c57600080fd5b506101b461042b366004611e70565b610e14565b34801561043c57600080fd5b5061025061044b366004611ec0565b7fbc197c810000000000000000000000000000000000000000000000000000000098975050505050505050565b34801561048457600080fd5b5061031f610e63565b34801561049957600080fd5b506104a2610f0d565b6040516101e29190611fae565b3480156104bb57600080fd5b5061031f610f9b565b3480156104d057600080fd5b506002546104f79074010000000000000000000000000000000000000000900461ffff1681565b60405161ffff90911681526020016101e2565b34801561051657600080fd5b50610250610525366004611fc1565b7ff23a6e61000000000000000000000000000000000000000000000000000000009695505050505050565b60007fffffffff0000000000000000000000000000000000000000000000000000000082167f150b7a020000000000000000000000000000000000000000000000000000000014806105e357507fffffffff0000000000000000000000000000000000000000000000000000000082167f4e2312e000000000000000000000000000000000000000000000000000000000145b8061062f57507fffffffff0000000000000000000000000000000000000000000000000000000082167f01ffc9a700000000000000000000000000000000000000000000000000000000145b92915050565b600054610100900460ff16158080156106555750600054600160ff909116105b8061066f5750303b15801561066f575060005460ff166001145b6106e65760405162461bcd60e51b815260206004820152602e60248201527f496e697469616c697a61626c653a20636f6e747261637420697320616c72656160448201527f647920696e697469616c697a656400000000000000000000000000000000000060648201526084015b60405180910390fd5b600080547fffffffffffffffffffffffffffffffffffffffffffffffffffffffffffffff00166001179055801561074457600080547fffffffffffffffffffffffffffffffffffffffffffffffffffffffffffff00ff166101001790555b61074e600061100a565b61075a85858585611092565b80156107bd57600080547fffffffffffffffffffffffffffffffffffffffffffffffffffffffffffff00ff169055604051600181527f7f26b83ff96e1f2b6a682f133852f6798a09c465da95921460cefb38474024989060200160405180910390a15b5050505050565b6107cc6110f5565b82811461081b5760405162461bcd60e51b815260206004820152601360248201527f77726f6e67206172726179206c656e677468730000000000000000000000000060448201526064016106dd565b60005b838110156107bd576108b085858381811061083b5761083b61203d565b90506020020160208101906108509190611d63565b60008585858181106108645761086461203d565b9050602002810190610876919061206c565b8080601f01602080910402602001604051908101604052809392919081815260200183838082843760009201919091525061118492505050565b806108ba816120d1565b91505061081e565b6001600160a01b037f00000000000000000000000000000000000000000000000000000000000000001630036109605760405162461bcd60e51b815260206004820152602c60248201527f46756e6374696f6e206d7573742062652063616c6c6564207468726f7567682060448201527f64656c656761746563616c6c000000000000000000000000000000000000000060648201526084016106dd565b7f00000000000000000000000000000000000000000000000000000000000000006001600160a01b03166109bb7f360894a13ba1a3210667c828492db98dca3e2076cc3735a920a3ca505d382bbc546001600160a01b031690565b6001600160a01b031614610a375760405162461bcd60e51b815260206004820152602c60248201527f46756e6374696f6e206d7573742062652063616c6c6564207468726f7567682060448201527f6163746976652070726f7879000000000000000000000000000000000000000060648201526084016106dd565b610a40816111f4565b60408051600080825260208201909252610a5c918391906111fc565b50565b6000610a696113a1565b610a738484611419565b9050610a7e82611460565b9392505050565b7f00000000000000000000000000000000000000000000000000000000000000006040517fb760faf90000000000000000000000000000000000000000000000000000000081523060048201526001600160a01b03919091169063b760faf99034906024016000604051808303818588803b158015610b0357600080fd5b505af11580156107bd573d6000803e3d6000fd5b610b1f6114ad565b7f00000000000000000000000000000000000000000000000000000000000000006040517f205c28780000000000000000000000000000000000000000000000000000000081526001600160a01b03848116600483015260248201849052919091169063205c287890604401600060405180830381600087803b158015610ba557600080fd5b505af1158015610bb9573d6000803e3d6000fd5b505050505050565b6001600160a01b037f0000000000000000000000000000000000000000000000000000000000000000163003610c5f5760405162461bcd60e51b815260206004820152602c60248201527f46756e6374696f6e206d7573742062652063616c6c6564207468726f7567682060448201527f64656c656761746563616c6c000000000000000000000000000000000000000060648201526084016106dd565b7f00000000000000000000000000000000000000000000000000000000000000006001600160a01b0316610cba7f360894a13ba1a3210667c828492db98dca3e2076cc3735a920a3ca505d382bbc546001600160a01b031690565b6001600160a01b031614610d365760405162461bcd60e51b815260206004820152602c60248201527f46756e6374696f6e206d7573742062652063616c6c6564207468726f7567682060448201527f6163746976652070726f7879000000000000000000000000000000000000000060648201526084016106dd565b610d3f826111f4565b610d4b828260016111fc565b5050565b6000306001600160a01b037f00000000000000000000000000000000000000000000000000000000000000001614610def5760405162461bcd60e51b815260206004820152603860248201527f555550535570677261646561626c653a206d757374206e6f742062652063616c60448201527f6c6564207468726f7567682064656c656761746563616c6c000000000000000060648201526084016106dd565b507f360894a13ba1a3210667c828492db98dca3e2076cc3735a920a3ca505d382bbc90565b610e1c6110f5565b610e5d848484848080601f01602080910402602001604051908101604052809392919081815260200183838082843760009201919091525061118492505050565b50505050565b6040517f70a082310000000000000000000000000000000000000000000000000000000081523060048201526000906001600160a01b037f000000000000000000000000000000000000000000000000000000000000000016906370a08231906024015b602060405180830381865afa158015610ee4573d6000803e3d6000fd5b505050506040513d601f19601f82011682018060405250810190610f089190612112565b905090565b60038054610f1a9061212b565b80601f0160208091040260200160405190810160405280929190818152602001828054610f469061212b565b8015610f935780601f10610f6857610100808354040283529160200191610f93565b820191906000526020600020905b815481529060010190602001808311610f7657829003601f168201915b505050505081565b6040517f35567e1a000000000000000000000000000000000000000000000000000000008152306004820152600060248201819052906001600160a01b037f000000000000000000000000000000000000000000000000000000000000000016906335567e1a90604401610ec7565b600580547fffffffffffffffffffffffff0000000000000000000000000000000000000000166001600160a01b0383811691821790925560405190917f000000000000000000000000000000000000000000000000000000000000000016907f526ffefac8167421b9048ae3377810715d834479565b0182ea4155f0efa4c38090600090a350565b60028054600185905561ffff841674010000000000000000000000000000000000000000027fffffffffffffffffffff000000000000000000000000000000000000000000009091166001600160a01b0387161717905560036107bd82826121c4565b336001600160a01b037f000000000000000000000000000000000000000000000000000000000000000016148061113657506005546001600160a01b031633145b6111825760405162461bcd60e51b815260206004820181905260248201527f6163636f756e743a206e6f74204f776e6572206f7220456e747279506f696e7460448201526064016106dd565b565b600080846001600160a01b031684846040516111a09190612284565b60006040518083038185875af1925050503d80600081146111dd576040519150601f19603f3d011682016040523d82523d6000602084013e6111e2565b606091505b5091509150816107bd57805160208201fd5b610a5c6114ad565b7f4910fdfa16fed3260ed0e7147f7cc6da11a60208b5b9406d12a635614ffd91435460ff16156112345761122f83611511565b505050565b826001600160a01b03166352d1902d6040518163ffffffff1660e01b8152600401602060405180830381865afa92505050801561128e575060408051601f3d908101601f1916820190925261128b91810190612112565b60015b6113005760405162461bcd60e51b815260206004820152602e60248201527f45524331393637557067726164653a206e657720696d706c656d656e7461746960448201527f6f6e206973206e6f74205555505300000000000000000000000000000000000060648201526084016106dd565b7f360894a13ba1a3210667c828492db98dca3e2076cc3735a920a3ca505d382bbc81146113955760405162461bcd60e51b815260206004820152602960248201527f45524331393637557067726164653a20756e737570706f727465642070726f7860448201527f6961626c6555554944000000000000000000000000000000000000000000000060648201526084016106dd565b5061122f8383836115e7565b336001600160a01b037f000000000000000000000000000000000000000000000000000000000000000016146111825760405162461bcd60e51b815260206004820152601c60248201527f6163636f756e743a206e6f742066726f6d20456e747279506f696e740000000060448201526064016106dd565b6000808061142b61014086018661206c565b81019061143891906122a0565b91509150611446828261160c565b6114555760019250505061062f565b506000949350505050565b8015610a5c57604051600090339060001990849084818181858888f193505050503d80600081146107bd576040519150601f19603f3d011682016040523d82523d6000602084013e6107bd565b6005546001600160a01b03163314806114c557503330145b6111825760405162461bcd60e51b815260206004820152600a60248201527f6f6e6c79206f776e65720000000000000000000000000000000000000000000060448201526064016106dd565b6001600160a01b0381163b61158e5760405162461bcd60e51b815260206004820152602d60248201527f455243313936373a206e657720696d706c656d656e746174696f6e206973206e60448201527f6f74206120636f6e74726163740000000000000000000000000000000000000060648201526084016106dd565b7f360894a13ba1a3210667c828492db98dca3e2076cc3735a920a3ca505d382bbc80547fffffffffffffffffffffffff0000000000000000000000000000000000000000166001600160a01b0392909216919091179055565b6115f083611826565b6000825111806115fd5750805b1561122f57610e5d8383611866565b60008181526004602052604081205460ff161561166b5760405162461bcd60e51b815260206004820152601460248201527f4455504c4943415445445f4e554c4c494649455200000000000000000000000060448201526064016106dd565b6002546000906116979074010000000000000000000000000000000000000000900461ffff16426122e5565b60408051600380825260808201909252919250600091906020820160608036833701905050905083816000815181106116d2576116d261203d565b602002602001018181525050600154816001815181106116f4576116f461203d565b6020026020010181815250508160001b816002815181106117175761171761203d565b60209081029190910101526002546040517fea50d0e40000000000000000000000000000000000000000000000000000000081526001600160a01b039091169063ea50d0e49061176d9088908590600401612320565b602060405180830381865afa15801561178a573d6000803e3d6000fd5b505050506040513d601f19601f820116820180604052508101906117ae9190612377565b6117e4576040517fff3ee09d00000000000000000000000000000000000000000000000000000000815260040160405180910390fd5b505050600081815260046020526040902080547fffffffffffffffffffffffffffffffffffffffffffffffffffffffffffffff0016600190811790915561062f565b61182f81611511565b6040516001600160a01b038216907fbc7cd75a20ee27fd9adebab32041f755214dbc6bffa90cc0225b39da2e5c2d3b90600090a250565b6060610a7e838360405180606001604052806027815260200161239a602791396060600080856001600160a01b0316856040516118a39190612284565b600060405180830381855af49150503d80600081146118de576040519150601f19603f3d011682016040523d82523d6000602084013e6118e3565b606091505b50915091506118f4868383876118fe565b9695505050505050565b6060831561196d578251600003611966576001600160a01b0385163b6119665760405162461bcd60e51b815260206004820152601d60248201527f416464726573733a2063616c6c20746f206e6f6e2d636f6e747261637400000060448201526064016106dd565b5081611977565b611977838361197f565b949350505050565b81511561198f5781518083602001fd5b8060405162461bcd60e51b81526004016106dd9190611fae565b6001600160a01b0381168114610a5c57600080fd5b60008083601f8401126119d057600080fd5b50813567ffffffffffffffff8111156119e857600080fd5b602083019150836020828501011115611a0057600080fd5b9250929050565b60008060008060008060008060c0898b031215611a2357600080fd5b8835611a2e816119a9565b97506020890135611a3e816119a9565b96506040890135611a4e816119a9565b955060608901359450608089013567ffffffffffffffff80821115611a7257600080fd5b611a7e8c838d016119be565b909650945060a08b0135915080821115611a9757600080fd5b50611aa48b828c016119be565b999c989b5096995094979396929594505050565b600060208284031215611aca57600080fd5b81357fffffffff0000000000000000000000000000000000000000000000000000000081168114610a7e57600080fd5b7f4e487b7100000000000000000000000000000000000000000000000000000000600052604160045260246000fd5b600067ffffffffffffffff80841115611b4457611b44611afa565b604051601f8501601f19908116603f01168101908282118183101715611b6c57611b6c611afa565b81604052809350858152868686011115611b8557600080fd5b858560208301376000602087830101525050509392505050565b60008060008060808587031215611bb557600080fd5b8435611bc0816119a9565b935060208501359250604085013561ffff81168114611bde57600080fd5b9150606085013567ffffffffffffffff811115611bfa57600080fd5b8501601f81018713611c0b57600080fd5b611c1a87823560208401611b29565b91505092959194509250565b600080600080600060808688031215611c3e57600080fd5b8535611c49816119a9565b94506020860135611c59816119a9565b935060408601359250606086013567ffffffffffffffff811115611c7c57600080fd5b611c88888289016119be565b969995985093965092949392505050565b60008083601f840112611cab57600080fd5b50813567ffffffffffffffff811115611cc357600080fd5b6020830191508360208260051b8501011115611a0057600080fd5b60008060008060408587031215611cf457600080fd5b843567ffffffffffffffff80821115611d0c57600080fd5b611d1888838901611c99565b90965094506020870135915080821115611d3157600080fd5b50611d3e87828801611c99565b95989497509550505050565b600060208284031215611d5c57600080fd5b5035919050565b600060208284031215611d7557600080fd5b8135610a7e816119a9565b600080600060608486031215611d9557600080fd5b833567ffffffffffffffff811115611dac57600080fd5b84016101608187031215611dbf57600080fd5b95602085013595506040909401359392505050565b60008060408385031215611de757600080fd5b8235611df2816119a9565b946020939093013593505050565b600082601f830112611e1157600080fd5b610a7e83833560208501611b29565b60008060408385031215611e3357600080fd5b8235611e3e816119a9565b9150602083013567ffffffffffffffff811115611e5a57600080fd5b611e6685828601611e00565b9150509250929050565b60008060008060608587031215611e8657600080fd5b8435611e91816119a9565b935060208501359250604085013567ffffffffffffffff811115611eb457600080fd5b611d3e878288016119be565b60008060008060008060008060a0898b031215611edc57600080fd5b8835611ee7816119a9565b97506020890135611ef7816119a9565b9650604089013567ffffffffffffffff80821115611f1457600080fd5b611f208c838d01611c99565b909850965060608b0135915080821115611f3957600080fd5b611f458c838d01611c99565b909650945060808b0135915080821115611a9757600080fd5b60005b83811015611f79578181015183820152602001611f61565b50506000910152565b60008151808452611f9a816020860160208601611f5e565b601f01601f19169290920160200192915050565b602081526000610a7e6020830184611f82565b60008060008060008060a08789031215611fda57600080fd5b8635611fe5816119a9565b95506020870135611ff5816119a9565b94506040870135935060608701359250608087013567ffffffffffffffff81111561201f57600080fd5b61202b89828a016119be565b979a9699509497509295939492505050565b7f4e487b7100000000000000000000000000000000000000000000000000000000600052603260045260246000fd5b60008083357fffffffffffffffffffffffffffffffffffffffffffffffffffffffffffffffe18436030181126120a157600080fd5b83018035915067ffffffffffffffff8211156120bc57600080fd5b602001915036819003821315611a0057600080fd5b6000600019820361210b577f4e487b7100000000000000000000000000000000000000000000000000000000600052601160045260246000fd5b5060010190565b60006020828403121561212457600080fd5b5051919050565b600181811c9082168061213f57607f821691505b602082108103612178577f4e487b7100000000000000000000000000000000000000000000000000000000600052602260045260246000fd5b50919050565b601f82111561122f57600081815260208120601f850160051c810160208610156121a55750805b601f850160051c820191505b81811015610bb9578281556001016121b1565b815167ffffffffffffffff8111156121de576121de611afa565b6121f2816121ec845461212b565b8461217e565b602080601f831160018114612227576000841561220f5750858301515b600019600386901b1c1916600185901b178555610bb9565b600085815260208120601f198616915b8281101561225657888601518255948401946001909101908401612237565b50858210156122745787850151600019600388901b60f8161c191681555b5050505050600190811b01905550565b60008251612296818460208701611f5e565b9190910192915050565b600080604083850312156122b357600080fd5b823567ffffffffffffffff8111156122ca57600080fd5b6122d685828601611e00565b95602094909401359450505050565b60008261231b577f4e487b7100000000000000000000000000000000000000000000000000000000600052601260045260246000fd5b500490565b6040815260006123336040830185611f82565b82810360208481019190915284518083528582019282019060005b8181101561236a5784518352938301939183019160010161234e565b5090979650505050505050565b60006020828403121561238957600080fd5b81518015158114610a7e57600080fdfe416464726573733a206c6f772d6c6576656c2064656c65676174652063616c6c206661696c6564a2646970667358221220c395c826667835f2f9460c4bbaa1f44ea35daf4a2e852ded663d5c8c8ed4fced64736f6c63430008140033",
    "linkReferences": {}
  },
  "methodIdentifiers": {
    "accountImplementation()": "11464fbe",
    "createAccount(bytes32,uint16,string,uint256)": "39090439",
    "getAccountAddress(bytes32,uint16,string,uint256)": "4d543606",
    "owner()": "8da5cb5b",
    "renounceOwnership()": "715018a6",
    "setVerifier(address)": "5437988d",
    "transferOwnership(address)": "f2fde38b",
    "verifier()": "2b7ac3f3"
  },
  "id": 45
}